{
	"contracts/ForWhile.sol": {
		"Loop": {
			"abi": [
				{
					"inputs": [],
					"name": "loop",
					"outputs": [],
					"stateMutability": "nonpayable",
					"type": "function"
				},
				{
					"inputs": [],
					"name": "whileloop",
					"outputs": [],
					"stateMutability": "nonpayable",
					"type": "function"
				}
			],
			"devdoc": {
				"kind": "dev",
				"methods": {},
				"version": 1
			},
			"evm": {
				"assembly": "    /* \"contracts/ForWhile.sol\":57:445  contract Loop {... */\n  mstore(0x40, 0x80)\n  callvalue\n  dup1\n  iszero\n  tag_1\n  jumpi\n  0x00\n  dup1\n  revert\ntag_1:\n  pop\n  dataSize(sub_0)\n  dup1\n  dataOffset(sub_0)\n  0x00\n  codecopy\n  0x00\n  return\nstop\n\nsub_0: assembly {\n        /* \"contracts/ForWhile.sol\":57:445  contract Loop {... */\n      mstore(0x40, 0x80)\n      callvalue\n      dup1\n      iszero\n      tag_1\n      jumpi\n      0x00\n      dup1\n      revert\n    tag_1:\n      pop\n      jumpi(tag_2, lt(calldatasize, 0x04))\n      shr(0xe0, calldataload(0x00))\n      dup1\n      0x4c999463\n      eq\n      tag_3\n      jumpi\n      dup1\n      0xa92100cb\n      eq\n      tag_4\n      jumpi\n    tag_2:\n      0x00\n      dup1\n      revert\n        /* \"contracts/ForWhile.sol\":317:443  function whileloop() public {... */\n    tag_3:\n      tag_5\n      tag_6\n      jump\t// in\n    tag_5:\n      stop\n        /* \"contracts/ForWhile.sol\":74:314  function loop() public {... */\n    tag_4:\n      tag_7\n      tag_8\n      jump\t// in\n    tag_7:\n      stop\n        /* \"contracts/ForWhile.sol\":317:443  function whileloop() public {... */\n    tag_6:\n        /* \"contracts/ForWhile.sol\":363:369  uint j */\n      0x00\n        /* \"contracts/ForWhile.sol\":372:440  while (j < 10) {... */\n    tag_10:\n        /* \"contracts/ForWhile.sol\":383:385  10 */\n      0x0a\n        /* \"contracts/ForWhile.sol\":379:380  j */\n      dup2\n        /* \"contracts/ForWhile.sol\":379:385  j < 10 */\n      lt\n        /* \"contracts/ForWhile.sol\":372:440  while (j < 10) {... */\n      iszero\n      tag_11\n      jumpi\n        /* \"contracts/ForWhile.sol\":390:393  j++ */\n      dup1\n      dup1\n      tag_12\n      swap1\n      tag_13\n      jump\t// in\n    tag_12:\n      swap2\n      pop\n      pop\n        /* \"contracts/ForWhile.sol\":372:440  while (j < 10) {... */\n      jump(tag_10)\n    tag_11:\n        /* \"contracts/ForWhile.sol\":345:443  {... */\n      pop\n        /* \"contracts/ForWhile.sol\":317:443  function whileloop() public {... */\n      jump\t// out\n        /* \"contracts/ForWhile.sol\":74:314  function loop() public {... */\n    tag_8:\n        /* \"contracts/ForWhile.sol\":118:124  uint i */\n      0x00\n        /* \"contracts/ForWhile.sol\":113:311  for (uint i = 0; i < 10; i++) {... */\n    tag_15:\n        /* \"contracts/ForWhile.sol\":134:136  10 */\n      0x0a\n        /* \"contracts/ForWhile.sol\":130:131  i */\n      dup2\n        /* \"contracts/ForWhile.sol\":130:136  i < 10 */\n      lt\n        /* \"contracts/ForWhile.sol\":113:311  for (uint i = 0; i < 10; i++) {... */\n      iszero\n      tag_16\n      jumpi\n        /* \"contracts/ForWhile.sol\":155:156  3 */\n      0x03\n        /* \"contracts/ForWhile.sol\":150:151  i */\n      dup2\n        /* \"contracts/ForWhile.sol\":150:156  i == 3 */\n      sub\n        /* \"contracts/ForWhile.sol\":146:214  if (i == 3) {... */\n      iszero\n        /* \"contracts/ForWhile.sol\":202:210  continue */\n      tag_17\n        /* \"contracts/ForWhile.sol\":146:214  if (i == 3) {... */\n      jumpi\n        /* \"contracts/ForWhile.sol\":225:226  5 */\n      0x05\n        /* \"contracts/ForWhile.sol\":220:221  i */\n      dup2\n        /* \"contracts/ForWhile.sol\":220:226  i == 5 */\n      sub\n        /* \"contracts/ForWhile.sol\":216:265  if (i == 5) {... */\n      iszero\n        /* \"contracts/ForWhile.sol\":256:261  break */\n      tag_16\n        /* \"contracts/ForWhile.sol\":216:265  if (i == 5) {... */\n      jumpi\n        /* \"contracts/ForWhile.sol\":113:311  for (uint i = 0; i < 10; i++) {... */\n    tag_17:\n        /* \"contracts/ForWhile.sol\":138:141  i++ */\n      dup1\n      dup1\n      0x01\n      add\n      swap2\n      pop\n      pop\n        /* \"contracts/ForWhile.sol\":113:311  for (uint i = 0; i < 10; i++) {... */\n      jump(tag_15)\n    tag_16:\n      pop\n        /* \"contracts/ForWhile.sol\":74:314  function loop() public {... */\n      jump\t// out\n        /* \"#utility.yul\":7:187   */\n    tag_20:\n        /* \"#utility.yul\":55:132   */\n      0x4e487b7100000000000000000000000000000000000000000000000000000000\n        /* \"#utility.yul\":52:53   */\n      0x00\n        /* \"#utility.yul\":45:133   */\n      mstore\n        /* \"#utility.yul\":152:156   */\n      0x11\n        /* \"#utility.yul\":149:150   */\n      0x04\n        /* \"#utility.yul\":142:157   */\n      mstore\n        /* \"#utility.yul\":176:180   */\n      0x24\n        /* \"#utility.yul\":173:174   */\n      0x00\n        /* \"#utility.yul\":166:181   */\n      revert\n        /* \"#utility.yul\":193:270   */\n    tag_21:\n        /* \"#utility.yul\":230:237   */\n      0x00\n        /* \"#utility.yul\":259:264   */\n      dup2\n        /* \"#utility.yul\":248:264   */\n      swap1\n      pop\n        /* \"#utility.yul\":193:270   */\n      swap2\n      swap1\n      pop\n      jump\t// out\n        /* \"#utility.yul\":276:509   */\n    tag_13:\n        /* \"#utility.yul\":315:318   */\n      0x00\n        /* \"#utility.yul\":338:362   */\n      tag_26\n        /* \"#utility.yul\":356:361   */\n      dup3\n        /* \"#utility.yul\":338:362   */\n      tag_21\n      jump\t// in\n    tag_26:\n        /* \"#utility.yul\":329:362   */\n      swap2\n      pop\n        /* \"#utility.yul\":384:450   */\n      0xffffffffffffffffffffffffffffffffffffffffffffffffffffffffffffffff\n        /* \"#utility.yul\":377:382   */\n      dup3\n        /* \"#utility.yul\":374:451   */\n      sub\n        /* \"#utility.yul\":371:474   */\n      tag_27\n      jumpi\n        /* \"#utility.yul\":454:472   */\n      tag_28\n      tag_20\n      jump\t// in\n    tag_28:\n        /* \"#utility.yul\":371:474   */\n    tag_27:\n        /* \"#utility.yul\":501:502   */\n      0x01\n        /* \"#utility.yul\":494:499   */\n      dup3\n        /* \"#utility.yul\":490:503   */\n      add\n        /* \"#utility.yul\":483:503   */\n      swap1\n      pop\n        /* \"#utility.yul\":276:509   */\n      swap2\n      swap1\n      pop\n      jump\t// out\n\n    auxdata: 0xa26469706673582212203280a6083c5183368fd9c95b5f47f12c4101ffcf6d5ed578881981c65442c18b64736f6c634300081a0033\n}\n",
				"bytecode": {
					"linkReferences": {},
					"object": "6080604052348015600e575f80fd5b5061014e8061001c5f395ff3fe608060405234801561000f575f80fd5b5060043610610034575f3560e01c80634c99946314610038578063a92100cb14610042575b5f80fd5b61004061004c565b005b61004a61006d565b005b5f5b600a81101561006a578080610062906100d1565b91505061004e565b50565b5f5b600a81101561009857600381031561008b576005810315610098575b808060010191505061006f565b50565b7f4e487b71000000000000000000000000000000000000000000000000000000005f52601160045260245ffd5b5f819050919050565b5f6100db826100c8565b91507fffffffffffffffffffffffffffffffffffffffffffffffffffffffffffffffff820361010d5761010c61009b565b5b60018201905091905056fea26469706673582212203280a6083c5183368fd9c95b5f47f12c4101ffcf6d5ed578881981c65442c18b64736f6c634300081a0033",
					"opcodes": "PUSH1 0x80 PUSH1 0x40 MSTORE CALLVALUE DUP1 ISZERO PUSH1 0xE JUMPI PUSH0 DUP1 REVERT JUMPDEST POP PUSH2 0x14E DUP1 PUSH2 0x1C PUSH0 CODECOPY PUSH0 RETURN INVALID PUSH1 0x80 PUSH1 0x40 MSTORE CALLVALUE DUP1 ISZERO PUSH2 0xF JUMPI PUSH0 DUP1 REVERT JUMPDEST POP PUSH1 0x4 CALLDATASIZE LT PUSH2 0x34 JUMPI PUSH0 CALLDATALOAD PUSH1 0xE0 SHR DUP1 PUSH4 0x4C999463 EQ PUSH2 0x38 JUMPI DUP1 PUSH4 0xA92100CB EQ PUSH2 0x42 JUMPI JUMPDEST PUSH0 DUP1 REVERT JUMPDEST PUSH2 0x40 PUSH2 0x4C JUMP JUMPDEST STOP JUMPDEST PUSH2 0x4A PUSH2 0x6D JUMP JUMPDEST STOP JUMPDEST PUSH0 JUMPDEST PUSH1 0xA DUP2 LT ISZERO PUSH2 0x6A JUMPI DUP1 DUP1 PUSH2 0x62 SWAP1 PUSH2 0xD1 JUMP JUMPDEST SWAP2 POP POP PUSH2 0x4E JUMP JUMPDEST POP JUMP JUMPDEST PUSH0 JUMPDEST PUSH1 0xA DUP2 LT ISZERO PUSH2 0x98 JUMPI PUSH1 0x3 DUP2 SUB ISZERO PUSH2 0x8B JUMPI PUSH1 0x5 DUP2 SUB ISZERO PUSH2 0x98 JUMPI JUMPDEST DUP1 DUP1 PUSH1 0x1 ADD SWAP2 POP POP PUSH2 0x6F JUMP JUMPDEST POP JUMP JUMPDEST PUSH32 0x4E487B7100000000000000000000000000000000000000000000000000000000 PUSH0 MSTORE PUSH1 0x11 PUSH1 0x4 MSTORE PUSH1 0x24 PUSH0 REVERT JUMPDEST PUSH0 DUP2 SWAP1 POP SWAP2 SWAP1 POP JUMP JUMPDEST PUSH0 PUSH2 0xDB DUP3 PUSH2 0xC8 JUMP JUMPDEST SWAP2 POP PUSH32 0xFFFFFFFFFFFFFFFFFFFFFFFFFFFFFFFFFFFFFFFFFFFFFFFFFFFFFFFFFFFFFFFF DUP3 SUB PUSH2 0x10D JUMPI PUSH2 0x10C PUSH2 0x9B JUMP JUMPDEST JUMPDEST PUSH1 0x1 DUP3 ADD SWAP1 POP SWAP2 SWAP1 POP JUMP INVALID LOG2 PUSH5 0x6970667358 0x22 SLT KECCAK256 ORIGIN DUP1 0xA6 ADDMOD EXTCODECOPY MLOAD DUP4 CALLDATASIZE DUP16 0xD9 0xC9 JUMPDEST PUSH0 SELFBALANCE CALL 0x2C COINBASE ADD SELFDESTRUCT 0xCF PUSH14 0x5ED578881981C65442C18B64736F PUSH13 0x634300081A0033000000000000 "
				},
				"gasEstimates": {
					"creation": {
						"codeDepositCost": "66800",
						"executionCost": "115",
						"totalCost": "66915"
					},
					"external": {
						"loop()": "infinite",
						"whileloop()": "infinite"
					}
				},
				"methodIdentifiers": {
					"loop()": "a92100cb",
					"whileloop()": "4c999463"
				}
			},
			"storageLayout": {
				"storage": [],
				"types": null
			},
			"userdoc": {
				"kind": "user",
				"methods": {},
				"version": 1
			}
		}
	}
}