{
	"contracts/EtherWei.sol": {
		"EtherUnits": {
			"abi": [
				{
					"inputs": [
						{
							"internalType": "uint256",
							"name": "etherAmount",
							"type": "uint256"
						}
					],
					"name": "convertEtherToWei",
					"outputs": [
						{
							"internalType": "uint256",
							"name": "",
							"type": "uint256"
						}
					],
					"stateMutability": "pure",
					"type": "function"
				},
				{
					"inputs": [
						{
							"internalType": "uint256",
							"name": "weiAmount",
							"type": "uint256"
						}
					],
					"name": "convertWeiToEther",
					"outputs": [
						{
							"internalType": "uint256",
							"name": "",
							"type": "uint256"
						}
					],
					"stateMutability": "pure",
					"type": "function"
				},
				{
					"inputs": [],
					"name": "isOneEther",
					"outputs": [
						{
							"internalType": "bool",
							"name": "",
							"type": "bool"
						}
					],
					"stateMutability": "view",
					"type": "function"
				},
				{
					"inputs": [],
					"name": "isOneWei",
					"outputs": [
						{
							"internalType": "bool",
							"name": "",
							"type": "bool"
						}
					],
					"stateMutability": "view",
					"type": "function"
				},
				{
					"inputs": [],
					"name": "oneEther",
					"outputs": [
						{
							"internalType": "uint256",
							"name": "",
							"type": "uint256"
						}
					],
					"stateMutability": "view",
					"type": "function"
				},
				{
					"inputs": [],
					"name": "oneWei",
					"outputs": [
						{
							"internalType": "uint256",
							"name": "",
							"type": "uint256"
						}
					],
					"stateMutability": "view",
					"type": "function"
				}
			],
			"devdoc": {
				"kind": "dev",
				"methods": {},
				"version": 1
			},
			"evm": {
				"assembly": "    /* \"contracts/EtherWei.sol\":25:638  contract EtherUnits {... */\n  mstore(0x40, 0x80)\n    /* \"contracts/EtherWei.sol\":69:74  1 wei */\n  0x01\n    /* \"contracts/EtherWei.sol\":48:74  uint public oneWei = 1 wei */\n  0x00\n  sstore\n    /* \"contracts/EtherWei.sol\":144:145  1 */\n  0x01\n    /* \"contracts/EtherWei.sol\":135:140  1 wei */\n  dup1\n    /* \"contracts/EtherWei.sol\":135:145  1 wei == 1 */\n  eq\n    /* \"contracts/EtherWei.sol\":112:145  bool public isOneWei = 1 wei == 1 */\n  0x01\n  exp(0x0100, 0x00)\n  dup2\n  sload\n  dup2\n  0xff\n  mul\n  not\n  and\n  swap1\n  dup4\n  iszero\n  iszero\n  mul\n  or\n  swap1\n  sstore\n  pop\n    /* \"contracts/EtherWei.sol\":211:218  1 ether */\n  0x0de0b6b3a7640000\n    /* \"contracts/EtherWei.sol\":188:218  uint public oneEther = 1 ether */\n  0x02\n  sstore\n    /* \"contracts/EtherWei.sol\":294:298  1e18 */\n  0x0de0b6b3a7640000\n    /* \"contracts/EtherWei.sol\":283:290  1 ether */\n  dup1\n    /* \"contracts/EtherWei.sol\":283:298  1 ether == 1e18 */\n  eq\n    /* \"contracts/EtherWei.sol\":258:298  bool public isOneEther = 1 ether == 1e18 */\n  0x03\n  exp(0x0100, 0x00)\n  dup2\n  sload\n  dup2\n  0xff\n  mul\n  not\n  and\n  swap1\n  dup4\n  iszero\n  iszero\n  mul\n  or\n  swap1\n  sstore\n  pop\n    /* \"contracts/EtherWei.sol\":25:638  contract EtherUnits {... */\n  callvalue\n  dup1\n  iszero\n  tag_1\n  jumpi\n  0x00\n  dup1\n  revert\ntag_1:\n  pop\n  dataSize(sub_0)\n  dup1\n  dataOffset(sub_0)\n  0x00\n  codecopy\n  0x00\n  return\nstop\n\nsub_0: assembly {\n        /* \"contracts/EtherWei.sol\":25:638  contract EtherUnits {... */\n      mstore(0x40, 0x80)\n      callvalue\n      dup1\n      iszero\n      tag_1\n      jumpi\n      0x00\n      dup1\n      revert\n    tag_1:\n      pop\n      jumpi(tag_2, lt(calldatasize, 0x04))\n      shr(0xe0, calldataload(0x00))\n      dup1\n      0x28dc556f\n      eq\n      tag_3\n      jumpi\n      dup1\n      0x395a6063\n      eq\n      tag_4\n      jumpi\n      dup1\n      0x4fb2e0be\n      eq\n      tag_5\n      jumpi\n      dup1\n      0xa7e91ab7\n      eq\n      tag_6\n      jumpi\n      dup1\n      0xcf0f5d29\n      eq\n      tag_7\n      jumpi\n      dup1\n      0xd297a89f\n      eq\n      tag_8\n      jumpi\n    tag_2:\n      0x00\n      dup1\n      revert\n        /* \"contracts/EtherWei.sol\":112:145  bool public isOneWei = 1 wei == 1 */\n    tag_3:\n      tag_9\n      tag_10\n      jump\t// in\n    tag_9:\n      mload(0x40)\n      tag_11\n      swap2\n      swap1\n      tag_12\n      jump\t// in\n    tag_11:\n      mload(0x40)\n      dup1\n      swap2\n      sub\n      swap1\n      return\n        /* \"contracts/EtherWei.sol\":362:495  function convertWeiToEther(uint weiAmount) public pure returns (uint)... */\n    tag_4:\n      tag_13\n      0x04\n      dup1\n      calldatasize\n      sub\n      dup2\n      add\n      swap1\n      tag_14\n      swap2\n      swap1\n      tag_15\n      jump\t// in\n    tag_14:\n      tag_16\n      jump\t// in\n    tag_13:\n      mload(0x40)\n      tag_17\n      swap2\n      swap1\n      tag_18\n      jump\t// in\n    tag_17:\n      mload(0x40)\n      dup1\n      swap2\n      sub\n      swap1\n      return\n        /* \"contracts/EtherWei.sol\":48:74  uint public oneWei = 1 wei */\n    tag_5:\n      tag_19\n      tag_20\n      jump\t// in\n    tag_19:\n      mload(0x40)\n      tag_21\n      swap2\n      swap1\n      tag_18\n      jump\t// in\n    tag_21:\n      mload(0x40)\n      dup1\n      swap2\n      sub\n      swap1\n      return\n        /* \"contracts/EtherWei.sol\":499:636  function convertEtherToWei(uint etherAmount) public pure returns (uint) {... */\n    tag_6:\n      tag_22\n      0x04\n      dup1\n      calldatasize\n      sub\n      dup2\n      add\n      swap1\n      tag_23\n      swap2\n      swap1\n      tag_15\n      jump\t// in\n    tag_23:\n      tag_24\n      jump\t// in\n    tag_22:\n      mload(0x40)\n      tag_25\n      swap2\n      swap1\n      tag_18\n      jump\t// in\n    tag_25:\n      mload(0x40)\n      dup1\n      swap2\n      sub\n      swap1\n      return\n        /* \"contracts/EtherWei.sol\":258:298  bool public isOneEther = 1 ether == 1e18 */\n    tag_7:\n      tag_26\n      tag_27\n      jump\t// in\n    tag_26:\n      mload(0x40)\n      tag_28\n      swap2\n      swap1\n      tag_12\n      jump\t// in\n    tag_28:\n      mload(0x40)\n      dup1\n      swap2\n      sub\n      swap1\n      return\n        /* \"contracts/EtherWei.sol\":188:218  uint public oneEther = 1 ether */\n    tag_8:\n      tag_29\n      tag_30\n      jump\t// in\n    tag_29:\n      mload(0x40)\n      tag_31\n      swap2\n      swap1\n      tag_18\n      jump\t// in\n    tag_31:\n      mload(0x40)\n      dup1\n      swap2\n      sub\n      swap1\n      return\n        /* \"contracts/EtherWei.sol\":112:145  bool public isOneWei = 1 wei == 1 */\n    tag_10:\n      0x01\n      0x00\n      swap1\n      sload\n      swap1\n      0x0100\n      exp\n      swap1\n      div\n      0xff\n      and\n      dup2\n      jump\t// out\n        /* \"contracts/EtherWei.sol\":362:495  function convertWeiToEther(uint weiAmount) public pure returns (uint)... */\n    tag_16:\n        /* \"contracts/EtherWei.sol\":426:430  uint */\n      0x00\n        /* \"contracts/EtherWei.sol\":454:461  1 ether */\n      0x0de0b6b3a7640000\n        /* \"contracts/EtherWei.sol\":442:451  weiAmount */\n      dup3\n        /* \"contracts/EtherWei.sol\":442:461  weiAmount / 1 ether */\n      tag_33\n      swap2\n      swap1\n      tag_34\n      jump\t// in\n    tag_33:\n        /* \"contracts/EtherWei.sol\":435:461  return weiAmount / 1 ether */\n      swap1\n      pop\n        /* \"contracts/EtherWei.sol\":362:495  function convertWeiToEther(uint weiAmount) public pure returns (uint)... */\n      swap2\n      swap1\n      pop\n      jump\t// out\n        /* \"contracts/EtherWei.sol\":48:74  uint public oneWei = 1 wei */\n    tag_20:\n      sload(0x00)\n      dup2\n      jump\t// out\n        /* \"contracts/EtherWei.sol\":499:636  function convertEtherToWei(uint etherAmount) public pure returns (uint) {... */\n    tag_24:\n        /* \"contracts/EtherWei.sol\":565:569  uint */\n      0x00\n        /* \"contracts/EtherWei.sol\":595:602  1 ether */\n      0x0de0b6b3a7640000\n        /* \"contracts/EtherWei.sol\":581:592  etherAmount */\n      dup3\n        /* \"contracts/EtherWei.sol\":581:602  etherAmount * 1 ether */\n      tag_36\n      swap2\n      swap1\n      tag_37\n      jump\t// in\n    tag_36:\n        /* \"contracts/EtherWei.sol\":574:602  return etherAmount * 1 ether */\n      swap1\n      pop\n        /* \"contracts/EtherWei.sol\":499:636  function convertEtherToWei(uint etherAmount) public pure returns (uint) {... */\n      swap2\n      swap1\n      pop\n      jump\t// out\n        /* \"contracts/EtherWei.sol\":258:298  bool public isOneEther = 1 ether == 1e18 */\n    tag_27:\n      0x03\n      0x00\n      swap1\n      sload\n      swap1\n      0x0100\n      exp\n      swap1\n      div\n      0xff\n      and\n      dup2\n      jump\t// out\n        /* \"contracts/EtherWei.sol\":188:218  uint public oneEther = 1 ether */\n    tag_30:\n      sload(0x02)\n      dup2\n      jump\t// out\n        /* \"#utility.yul\":7:97   */\n    tag_38:\n        /* \"#utility.yul\":41:48   */\n      0x00\n        /* \"#utility.yul\":84:89   */\n      dup2\n        /* \"#utility.yul\":77:90   */\n      iszero\n        /* \"#utility.yul\":70:91   */\n      iszero\n        /* \"#utility.yul\":59:91   */\n      swap1\n      pop\n        /* \"#utility.yul\":7:97   */\n      swap2\n      swap1\n      pop\n      jump\t// out\n        /* \"#utility.yul\":103:212   */\n    tag_39:\n        /* \"#utility.yul\":184:205   */\n      tag_52\n        /* \"#utility.yul\":199:204   */\n      dup2\n        /* \"#utility.yul\":184:205   */\n      tag_38\n      jump\t// in\n    tag_52:\n        /* \"#utility.yul\":179:182   */\n      dup3\n        /* \"#utility.yul\":172:206   */\n      mstore\n        /* \"#utility.yul\":103:212   */\n      pop\n      pop\n      jump\t// out\n        /* \"#utility.yul\":218:428   */\n    tag_12:\n        /* \"#utility.yul\":305:309   */\n      0x00\n        /* \"#utility.yul\":343:345   */\n      0x20\n        /* \"#utility.yul\":332:341   */\n      dup3\n        /* \"#utility.yul\":328:346   */\n      add\n        /* \"#utility.yul\":320:346   */\n      swap1\n      pop\n        /* \"#utility.yul\":356:421   */\n      tag_54\n        /* \"#utility.yul\":418:419   */\n      0x00\n        /* \"#utility.yul\":407:416   */\n      dup4\n        /* \"#utility.yul\":403:420   */\n      add\n        /* \"#utility.yul\":394:400   */\n      dup5\n        /* \"#utility.yul\":356:421   */\n      tag_39\n      jump\t// in\n    tag_54:\n        /* \"#utility.yul\":218:428   */\n      swap3\n      swap2\n      pop\n      pop\n      jump\t// out\n        /* \"#utility.yul\":515:632   */\n    tag_41:\n        /* \"#utility.yul\":624:625   */\n      0x00\n        /* \"#utility.yul\":621:622   */\n      dup1\n        /* \"#utility.yul\":614:626   */\n      revert\n        /* \"#utility.yul\":761:838   */\n    tag_43:\n        /* \"#utility.yul\":798:805   */\n      0x00\n        /* \"#utility.yul\":827:832   */\n      dup2\n        /* \"#utility.yul\":816:832   */\n      swap1\n      pop\n        /* \"#utility.yul\":761:838   */\n      swap2\n      swap1\n      pop\n      jump\t// out\n        /* \"#utility.yul\":844:966   */\n    tag_44:\n        /* \"#utility.yul\":917:941   */\n      tag_60\n        /* \"#utility.yul\":935:940   */\n      dup2\n        /* \"#utility.yul\":917:941   */\n      tag_43\n      jump\t// in\n    tag_60:\n        /* \"#utility.yul\":910:915   */\n      dup2\n        /* \"#utility.yul\":907:942   */\n      eq\n        /* \"#utility.yul\":897:960   */\n      tag_61\n      jumpi\n        /* \"#utility.yul\":956:957   */\n      0x00\n        /* \"#utility.yul\":953:954   */\n      dup1\n        /* \"#utility.yul\":946:958   */\n      revert\n        /* \"#utility.yul\":897:960   */\n    tag_61:\n        /* \"#utility.yul\":844:966   */\n      pop\n      jump\t// out\n        /* \"#utility.yul\":972:1111   */\n    tag_45:\n        /* \"#utility.yul\":1018:1023   */\n      0x00\n        /* \"#utility.yul\":1056:1062   */\n      dup2\n        /* \"#utility.yul\":1043:1063   */\n      calldataload\n        /* \"#utility.yul\":1034:1063   */\n      swap1\n      pop\n        /* \"#utility.yul\":1072:1105   */\n      tag_63\n        /* \"#utility.yul\":1099:1104   */\n      dup2\n        /* \"#utility.yul\":1072:1105   */\n      tag_44\n      jump\t// in\n    tag_63:\n        /* \"#utility.yul\":972:1111   */\n      swap3\n      swap2\n      pop\n      pop\n      jump\t// out\n        /* \"#utility.yul\":1117:1446   */\n    tag_15:\n        /* \"#utility.yul\":1176:1182   */\n      0x00\n        /* \"#utility.yul\":1225:1227   */\n      0x20\n        /* \"#utility.yul\":1213:1222   */\n      dup3\n        /* \"#utility.yul\":1204:1211   */\n      dup5\n        /* \"#utility.yul\":1200:1223   */\n      sub\n        /* \"#utility.yul\":1196:1228   */\n      slt\n        /* \"#utility.yul\":1193:1312   */\n      iszero\n      tag_65\n      jumpi\n        /* \"#utility.yul\":1231:1310   */\n      tag_66\n      tag_41\n      jump\t// in\n    tag_66:\n        /* \"#utility.yul\":1193:1312   */\n    tag_65:\n        /* \"#utility.yul\":1351:1352   */\n      0x00\n        /* \"#utility.yul\":1376:1429   */\n      tag_67\n        /* \"#utility.yul\":1421:1428   */\n      dup5\n        /* \"#utility.yul\":1412:1418   */\n      dup3\n        /* \"#utility.yul\":1401:1410   */\n      dup6\n        /* \"#utility.yul\":1397:1419   */\n      add\n        /* \"#utility.yul\":1376:1429   */\n      tag_45\n      jump\t// in\n    tag_67:\n        /* \"#utility.yul\":1366:1429   */\n      swap2\n      pop\n        /* \"#utility.yul\":1322:1439   */\n      pop\n        /* \"#utility.yul\":1117:1446   */\n      swap3\n      swap2\n      pop\n      pop\n      jump\t// out\n        /* \"#utility.yul\":1452:1570   */\n    tag_46:\n        /* \"#utility.yul\":1539:1563   */\n      tag_69\n        /* \"#utility.yul\":1557:1562   */\n      dup2\n        /* \"#utility.yul\":1539:1563   */\n      tag_43\n      jump\t// in\n    tag_69:\n        /* \"#utility.yul\":1534:1537   */\n      dup3\n        /* \"#utility.yul\":1527:1564   */\n      mstore\n        /* \"#utility.yul\":1452:1570   */\n      pop\n      pop\n      jump\t// out\n        /* \"#utility.yul\":1576:1798   */\n    tag_18:\n        /* \"#utility.yul\":1669:1673   */\n      0x00\n        /* \"#utility.yul\":1707:1709   */\n      0x20\n        /* \"#utility.yul\":1696:1705   */\n      dup3\n        /* \"#utility.yul\":1692:1710   */\n      add\n        /* \"#utility.yul\":1684:1710   */\n      swap1\n      pop\n        /* \"#utility.yul\":1720:1791   */\n      tag_71\n        /* \"#utility.yul\":1788:1789   */\n      0x00\n        /* \"#utility.yul\":1777:1786   */\n      dup4\n        /* \"#utility.yul\":1773:1790   */\n      add\n        /* \"#utility.yul\":1764:1770   */\n      dup5\n        /* \"#utility.yul\":1720:1791   */\n      tag_46\n      jump\t// in\n    tag_71:\n        /* \"#utility.yul\":1576:1798   */\n      swap3\n      swap2\n      pop\n      pop\n      jump\t// out\n        /* \"#utility.yul\":1804:1984   */\n    tag_47:\n        /* \"#utility.yul\":1852:1929   */\n      0x4e487b7100000000000000000000000000000000000000000000000000000000\n        /* \"#utility.yul\":1849:1850   */\n      0x00\n        /* \"#utility.yul\":1842:1930   */\n      mstore\n        /* \"#utility.yul\":1949:1953   */\n      0x12\n        /* \"#utility.yul\":1946:1947   */\n      0x04\n        /* \"#utility.yul\":1939:1954   */\n      mstore\n        /* \"#utility.yul\":1973:1977   */\n      0x24\n        /* \"#utility.yul\":1970:1971   */\n      0x00\n        /* \"#utility.yul\":1963:1978   */\n      revert\n        /* \"#utility.yul\":1990:2170   */\n    tag_48:\n        /* \"#utility.yul\":2038:2115   */\n      0x4e487b7100000000000000000000000000000000000000000000000000000000\n        /* \"#utility.yul\":2035:2036   */\n      0x00\n        /* \"#utility.yul\":2028:2116   */\n      mstore\n        /* \"#utility.yul\":2135:2139   */\n      0x11\n        /* \"#utility.yul\":2132:2133   */\n      0x04\n        /* \"#utility.yul\":2125:2140   */\n      mstore\n        /* \"#utility.yul\":2159:2163   */\n      0x24\n        /* \"#utility.yul\":2156:2157   */\n      0x00\n        /* \"#utility.yul\":2149:2164   */\n      revert\n        /* \"#utility.yul\":2176:2361   */\n    tag_34:\n        /* \"#utility.yul\":2216:2217   */\n      0x00\n        /* \"#utility.yul\":2233:2253   */\n      tag_75\n        /* \"#utility.yul\":2251:2252   */\n      dup3\n        /* \"#utility.yul\":2233:2253   */\n      tag_43\n      jump\t// in\n    tag_75:\n        /* \"#utility.yul\":2228:2253   */\n      swap2\n      pop\n        /* \"#utility.yul\":2267:2287   */\n      tag_76\n        /* \"#utility.yul\":2285:2286   */\n      dup4\n        /* \"#utility.yul\":2267:2287   */\n      tag_43\n      jump\t// in\n    tag_76:\n        /* \"#utility.yul\":2262:2287   */\n      swap3\n      pop\n        /* \"#utility.yul\":2306:2307   */\n      dup3\n        /* \"#utility.yul\":2296:2331   */\n      tag_77\n      jumpi\n        /* \"#utility.yul\":2311:2329   */\n      tag_78\n      tag_47\n      jump\t// in\n    tag_78:\n        /* \"#utility.yul\":2296:2331   */\n    tag_77:\n        /* \"#utility.yul\":2353:2354   */\n      dup3\n        /* \"#utility.yul\":2350:2351   */\n      dup3\n        /* \"#utility.yul\":2346:2355   */\n      div\n        /* \"#utility.yul\":2341:2355   */\n      swap1\n      pop\n        /* \"#utility.yul\":2176:2361   */\n      swap3\n      swap2\n      pop\n      pop\n      jump\t// out\n        /* \"#utility.yul\":2367:2777   */\n    tag_37:\n        /* \"#utility.yul\":2407:2414   */\n      0x00\n        /* \"#utility.yul\":2430:2450   */\n      tag_80\n        /* \"#utility.yul\":2448:2449   */\n      dup3\n        /* \"#utility.yul\":2430:2450   */\n      tag_43\n      jump\t// in\n    tag_80:\n        /* \"#utility.yul\":2425:2450   */\n      swap2\n      pop\n        /* \"#utility.yul\":2464:2484   */\n      tag_81\n        /* \"#utility.yul\":2482:2483   */\n      dup4\n        /* \"#utility.yul\":2464:2484   */\n      tag_43\n      jump\t// in\n    tag_81:\n        /* \"#utility.yul\":2459:2484   */\n      swap3\n      pop\n        /* \"#utility.yul\":2519:2520   */\n      dup3\n        /* \"#utility.yul\":2516:2517   */\n      dup3\n        /* \"#utility.yul\":2512:2521   */\n      mul\n        /* \"#utility.yul\":2541:2571   */\n      tag_82\n        /* \"#utility.yul\":2559:2570   */\n      dup2\n        /* \"#utility.yul\":2541:2571   */\n      tag_43\n      jump\t// in\n    tag_82:\n        /* \"#utility.yul\":2530:2571   */\n      swap2\n      pop\n        /* \"#utility.yul\":2720:2721   */\n      dup3\n        /* \"#utility.yul\":2711:2718   */\n      dup3\n        /* \"#utility.yul\":2707:2722   */\n      div\n        /* \"#utility.yul\":2704:2705   */\n      dup5\n        /* \"#utility.yul\":2701:2723   */\n      eq\n        /* \"#utility.yul\":2681:2682   */\n      dup4\n        /* \"#utility.yul\":2674:2683   */\n      iszero\n        /* \"#utility.yul\":2654:2737   */\n      or\n        /* \"#utility.yul\":2631:2770   */\n      tag_83\n      jumpi\n        /* \"#utility.yul\":2750:2768   */\n      tag_84\n      tag_48\n      jump\t// in\n    tag_84:\n        /* \"#utility.yul\":2631:2770   */\n    tag_83:\n        /* \"#utility.yul\":2415:2777   */\n      pop\n        /* \"#utility.yul\":2367:2777   */\n      swap3\n      swap2\n      pop\n      pop\n      jump\t// out\n\n    auxdata: 0xa264697066735822122052de3a91684adcc6c88d25154d0f4ba948f3d467ce1305459be44717a905a5e364736f6c634300081a0033\n}\n",
				"bytecode": {
					"linkReferences": {},
					"object": "608060405260015f556001801460015f6101000a81548160ff021916908315150217905550670de0b6b3a7640000600255670de0b6b3a7640000801460035f6101000a81548160ff021916908315150217905550348015605d575f80fd5b506103618061006b5f395ff3fe608060405234801561000f575f80fd5b5060043610610060575f3560e01c806328dc556f14610064578063395a6063146100825780634fb2e0be146100b2578063a7e91ab7146100d0578063cf0f5d2914610100578063d297a89f1461011e575b5f80fd5b61006c61013c565b60405161007991906101bd565b60405180910390f35b61009c6004803603810190610097919061020d565b61014e565b6040516100a99190610247565b60405180910390f35b6100ba61016a565b6040516100c79190610247565b60405180910390f35b6100ea60048036038101906100e5919061020d565b61016f565b6040516100f79190610247565b60405180910390f35b61010861018b565b60405161011591906101bd565b60405180910390f35b61012661019d565b6040516101339190610247565b60405180910390f35b60015f9054906101000a900460ff1681565b5f670de0b6b3a76400008261016391906102ba565b9050919050565b5f5481565b5f670de0b6b3a76400008261018491906102ea565b9050919050565b60035f9054906101000a900460ff1681565b60025481565b5f8115159050919050565b6101b7816101a3565b82525050565b5f6020820190506101d05f8301846101ae565b92915050565b5f80fd5b5f819050919050565b6101ec816101da565b81146101f6575f80fd5b50565b5f81359050610207816101e3565b92915050565b5f60208284031215610222576102216101d6565b5b5f61022f848285016101f9565b91505092915050565b610241816101da565b82525050565b5f60208201905061025a5f830184610238565b92915050565b7f4e487b71000000000000000000000000000000000000000000000000000000005f52601260045260245ffd5b7f4e487b71000000000000000000000000000000000000000000000000000000005f52601160045260245ffd5b5f6102c4826101da565b91506102cf836101da565b9250826102df576102de610260565b5b828204905092915050565b5f6102f4826101da565b91506102ff836101da565b925082820261030d816101da565b915082820484148315176103245761032361028d565b5b509291505056fea264697066735822122052de3a91684adcc6c88d25154d0f4ba948f3d467ce1305459be44717a905a5e364736f6c634300081a0033",
					"opcodes": "PUSH1 0x80 PUSH1 0x40 MSTORE PUSH1 0x1 PUSH0 SSTORE PUSH1 0x1 DUP1 EQ PUSH1 0x1 PUSH0 PUSH2 0x100 EXP DUP2 SLOAD DUP2 PUSH1 0xFF MUL NOT AND SWAP1 DUP4 ISZERO ISZERO MUL OR SWAP1 SSTORE POP PUSH8 0xDE0B6B3A7640000 PUSH1 0x2 SSTORE PUSH8 0xDE0B6B3A7640000 DUP1 EQ PUSH1 0x3 PUSH0 PUSH2 0x100 EXP DUP2 SLOAD DUP2 PUSH1 0xFF MUL NOT AND SWAP1 DUP4 ISZERO ISZERO MUL OR SWAP1 SSTORE POP CALLVALUE DUP1 ISZERO PUSH1 0x5D JUMPI PUSH0 DUP1 REVERT JUMPDEST POP PUSH2 0x361 DUP1 PUSH2 0x6B PUSH0 CODECOPY PUSH0 RETURN INVALID PUSH1 0x80 PUSH1 0x40 MSTORE CALLVALUE DUP1 ISZERO PUSH2 0xF JUMPI PUSH0 DUP1 REVERT JUMPDEST POP PUSH1 0x4 CALLDATASIZE LT PUSH2 0x60 JUMPI PUSH0 CALLDATALOAD PUSH1 0xE0 SHR DUP1 PUSH4 0x28DC556F EQ PUSH2 0x64 JUMPI DUP1 PUSH4 0x395A6063 EQ PUSH2 0x82 JUMPI DUP1 PUSH4 0x4FB2E0BE EQ PUSH2 0xB2 JUMPI DUP1 PUSH4 0xA7E91AB7 EQ PUSH2 0xD0 JUMPI DUP1 PUSH4 0xCF0F5D29 EQ PUSH2 0x100 JUMPI DUP1 PUSH4 0xD297A89F EQ PUSH2 0x11E JUMPI JUMPDEST PUSH0 DUP1 REVERT JUMPDEST PUSH2 0x6C PUSH2 0x13C JUMP JUMPDEST PUSH1 0x40 MLOAD PUSH2 0x79 SWAP2 SWAP1 PUSH2 0x1BD JUMP JUMPDEST PUSH1 0x40 MLOAD DUP1 SWAP2 SUB SWAP1 RETURN JUMPDEST PUSH2 0x9C PUSH1 0x4 DUP1 CALLDATASIZE SUB DUP2 ADD SWAP1 PUSH2 0x97 SWAP2 SWAP1 PUSH2 0x20D JUMP JUMPDEST PUSH2 0x14E JUMP JUMPDEST PUSH1 0x40 MLOAD PUSH2 0xA9 SWAP2 SWAP1 PUSH2 0x247 JUMP JUMPDEST PUSH1 0x40 MLOAD DUP1 SWAP2 SUB SWAP1 RETURN JUMPDEST PUSH2 0xBA PUSH2 0x16A JUMP JUMPDEST PUSH1 0x40 MLOAD PUSH2 0xC7 SWAP2 SWAP1 PUSH2 0x247 JUMP JUMPDEST PUSH1 0x40 MLOAD DUP1 SWAP2 SUB SWAP1 RETURN JUMPDEST PUSH2 0xEA PUSH1 0x4 DUP1 CALLDATASIZE SUB DUP2 ADD SWAP1 PUSH2 0xE5 SWAP2 SWAP1 PUSH2 0x20D JUMP JUMPDEST PUSH2 0x16F JUMP JUMPDEST PUSH1 0x40 MLOAD PUSH2 0xF7 SWAP2 SWAP1 PUSH2 0x247 JUMP JUMPDEST PUSH1 0x40 MLOAD DUP1 SWAP2 SUB SWAP1 RETURN JUMPDEST PUSH2 0x108 PUSH2 0x18B JUMP JUMPDEST PUSH1 0x40 MLOAD PUSH2 0x115 SWAP2 SWAP1 PUSH2 0x1BD JUMP JUMPDEST PUSH1 0x40 MLOAD DUP1 SWAP2 SUB SWAP1 RETURN JUMPDEST PUSH2 0x126 PUSH2 0x19D JUMP JUMPDEST PUSH1 0x40 MLOAD PUSH2 0x133 SWAP2 SWAP1 PUSH2 0x247 JUMP JUMPDEST PUSH1 0x40 MLOAD DUP1 SWAP2 SUB SWAP1 RETURN JUMPDEST PUSH1 0x1 PUSH0 SWAP1 SLOAD SWAP1 PUSH2 0x100 EXP SWAP1 DIV PUSH1 0xFF AND DUP2 JUMP JUMPDEST PUSH0 PUSH8 0xDE0B6B3A7640000 DUP3 PUSH2 0x163 SWAP2 SWAP1 PUSH2 0x2BA JUMP JUMPDEST SWAP1 POP SWAP2 SWAP1 POP JUMP JUMPDEST PUSH0 SLOAD DUP2 JUMP JUMPDEST PUSH0 PUSH8 0xDE0B6B3A7640000 DUP3 PUSH2 0x184 SWAP2 SWAP1 PUSH2 0x2EA JUMP JUMPDEST SWAP1 POP SWAP2 SWAP1 POP JUMP JUMPDEST PUSH1 0x3 PUSH0 SWAP1 SLOAD SWAP1 PUSH2 0x100 EXP SWAP1 DIV PUSH1 0xFF AND DUP2 JUMP JUMPDEST PUSH1 0x2 SLOAD DUP2 JUMP JUMPDEST PUSH0 DUP2 ISZERO ISZERO SWAP1 POP SWAP2 SWAP1 POP JUMP JUMPDEST PUSH2 0x1B7 DUP2 PUSH2 0x1A3 JUMP JUMPDEST DUP3 MSTORE POP POP JUMP JUMPDEST PUSH0 PUSH1 0x20 DUP3 ADD SWAP1 POP PUSH2 0x1D0 PUSH0 DUP4 ADD DUP5 PUSH2 0x1AE JUMP JUMPDEST SWAP3 SWAP2 POP POP JUMP JUMPDEST PUSH0 DUP1 REVERT JUMPDEST PUSH0 DUP2 SWAP1 POP SWAP2 SWAP1 POP JUMP JUMPDEST PUSH2 0x1EC DUP2 PUSH2 0x1DA JUMP JUMPDEST DUP2 EQ PUSH2 0x1F6 JUMPI PUSH0 DUP1 REVERT JUMPDEST POP JUMP JUMPDEST PUSH0 DUP2 CALLDATALOAD SWAP1 POP PUSH2 0x207 DUP2 PUSH2 0x1E3 JUMP JUMPDEST SWAP3 SWAP2 POP POP JUMP JUMPDEST PUSH0 PUSH1 0x20 DUP3 DUP5 SUB SLT ISZERO PUSH2 0x222 JUMPI PUSH2 0x221 PUSH2 0x1D6 JUMP JUMPDEST JUMPDEST PUSH0 PUSH2 0x22F DUP5 DUP3 DUP6 ADD PUSH2 0x1F9 JUMP JUMPDEST SWAP2 POP POP SWAP3 SWAP2 POP POP JUMP JUMPDEST PUSH2 0x241 DUP2 PUSH2 0x1DA JUMP JUMPDEST DUP3 MSTORE POP POP JUMP JUMPDEST PUSH0 PUSH1 0x20 DUP3 ADD SWAP1 POP PUSH2 0x25A PUSH0 DUP4 ADD DUP5 PUSH2 0x238 JUMP JUMPDEST SWAP3 SWAP2 POP POP JUMP JUMPDEST PUSH32 0x4E487B7100000000000000000000000000000000000000000000000000000000 PUSH0 MSTORE PUSH1 0x12 PUSH1 0x4 MSTORE PUSH1 0x24 PUSH0 REVERT JUMPDEST PUSH32 0x4E487B7100000000000000000000000000000000000000000000000000000000 PUSH0 MSTORE PUSH1 0x11 PUSH1 0x4 MSTORE PUSH1 0x24 PUSH0 REVERT JUMPDEST PUSH0 PUSH2 0x2C4 DUP3 PUSH2 0x1DA JUMP JUMPDEST SWAP2 POP PUSH2 0x2CF DUP4 PUSH2 0x1DA JUMP JUMPDEST SWAP3 POP DUP3 PUSH2 0x2DF JUMPI PUSH2 0x2DE PUSH2 0x260 JUMP JUMPDEST JUMPDEST DUP3 DUP3 DIV SWAP1 POP SWAP3 SWAP2 POP POP JUMP JUMPDEST PUSH0 PUSH2 0x2F4 DUP3 PUSH2 0x1DA JUMP JUMPDEST SWAP2 POP PUSH2 0x2FF DUP4 PUSH2 0x1DA JUMP JUMPDEST SWAP3 POP DUP3 DUP3 MUL PUSH2 0x30D DUP2 PUSH2 0x1DA JUMP JUMPDEST SWAP2 POP DUP3 DUP3 DIV DUP5 EQ DUP4 ISZERO OR PUSH2 0x324 JUMPI PUSH2 0x323 PUSH2 0x28D JUMP JUMPDEST JUMPDEST POP SWAP3 SWAP2 POP POP JUMP INVALID LOG2 PUSH5 0x6970667358 0x22 SLT KECCAK256 MSTORE 0xDE GASPRICE SWAP2 PUSH9 0x4ADCC6C88D25154D0F 0x4B 0xA9 BASEFEE RETURN 0xD4 PUSH8 0xCE1305459BE44717 0xA9 SDIV 0xA5 0xE3 PUSH5 0x736F6C6343 STOP ADDMOD BYTE STOP CALLER "
				},
				"gasEstimates": {
					"creation": {
						"codeDepositCost": "173000",
						"executionCost": "92973",
						"totalCost": "265973"
					},
					"external": {
						"convertEtherToWei(uint256)": "infinite",
						"convertWeiToEther(uint256)": "infinite",
						"isOneEther()": "2532",
						"isOneWei()": "2444",
						"oneEther()": "2513",
						"oneWei()": "2446"
					}
				},
				"methodIdentifiers": {
					"convertEtherToWei(uint256)": "a7e91ab7",
					"convertWeiToEther(uint256)": "395a6063",
					"isOneEther()": "cf0f5d29",
					"isOneWei()": "28dc556f",
					"oneEther()": "d297a89f",
					"oneWei()": "4fb2e0be"
				}
			},
			"storageLayout": {
				"storage": [
					{
						"astId": 4,
						"contract": "contracts/EtherWei.sol:EtherUnits",
						"label": "oneWei",
						"offset": 0,
						"slot": "0",
						"type": "t_uint256"
					},
					{
						"astId": 9,
						"contract": "contracts/EtherWei.sol:EtherUnits",
						"label": "isOneWei",
						"offset": 0,
						"slot": "1",
						"type": "t_bool"
					},
					{
						"astId": 12,
						"contract": "contracts/EtherWei.sol:EtherUnits",
						"label": "oneEther",
						"offset": 0,
						"slot": "2",
						"type": "t_uint256"
					},
					{
						"astId": 17,
						"contract": "contracts/EtherWei.sol:EtherUnits",
						"label": "isOneEther",
						"offset": 0,
						"slot": "3",
						"type": "t_bool"
					}
				],
				"types": {
					"t_bool": {
						"encoding": "inplace",
						"label": "bool",
						"numberOfBytes": "1"
					},
					"t_uint256": {
						"encoding": "inplace",
						"label": "uint256",
						"numberOfBytes": "32"
					}
				}
			},
			"userdoc": {
				"kind": "user",
				"methods": {},
				"version": 1
			}
		}
	}
}