{
	"contracts/Structs.sol": {
		"Todos": {
			"abi": [
				{
					"inputs": [
						{
							"internalType": "string",
							"name": "_text",
							"type": "string"
						}
					],
					"name": "create",
					"outputs": [],
					"stateMutability": "nonpayable",
					"type": "function"
				},
				{
					"inputs": [
						{
							"internalType": "uint256",
							"name": "_index",
							"type": "uint256"
						}
					],
					"name": "get",
					"outputs": [
						{
							"internalType": "string",
							"name": "text",
							"type": "string"
						},
						{
							"internalType": "bool",
							"name": "completed",
							"type": "bool"
						},
						{
							"internalType": "string",
							"name": "extra",
							"type": "string"
						}
					],
					"stateMutability": "view",
					"type": "function"
				},
				{
					"inputs": [],
					"name": "getLength",
					"outputs": [
						{
							"internalType": "uint256",
							"name": "",
							"type": "uint256"
						}
					],
					"stateMutability": "view",
					"type": "function"
				},
				{
					"inputs": [
						{
							"internalType": "uint256",
							"name": "",
							"type": "uint256"
						}
					],
					"name": "todos",
					"outputs": [
						{
							"internalType": "string",
							"name": "text",
							"type": "string"
						},
						{
							"internalType": "bool",
							"name": "completed",
							"type": "bool"
						}
					],
					"stateMutability": "view",
					"type": "function"
				},
				{
					"inputs": [
						{
							"internalType": "uint256",
							"name": "_index",
							"type": "uint256"
						}
					],
					"name": "toggleCompleted",
					"outputs": [],
					"stateMutability": "nonpayable",
					"type": "function"
				},
				{
					"inputs": [
						{
							"internalType": "uint256",
							"name": "_index",
							"type": "uint256"
						},
						{
							"internalType": "string",
							"name": "_text",
							"type": "string"
						}
					],
					"name": "updateText",
					"outputs": [],
					"stateMutability": "nonpayable",
					"type": "function"
				}
			],
			"devdoc": {
				"kind": "dev",
				"methods": {},
				"version": 1
			},
			"evm": {
				"assembly": "    /* \"contracts/Structs.sol\":100:914  contract Todos {... */\n  mstore(0x40, 0x80)\n  callvalue\n  dup1\n  iszero\n  tag_1\n  jumpi\n  0x00\n  dup1\n  revert\ntag_1:\n  pop\n  dataSize(sub_0)\n  dup1\n  dataOffset(sub_0)\n  0x00\n  codecopy\n  0x00\n  return\nstop\n\nsub_0: assembly {\n        /* \"contracts/Structs.sol\":100:914  contract Todos {... */\n      mstore(0x40, 0x80)\n      callvalue\n      dup1\n      iszero\n      tag_1\n      jumpi\n      0x00\n      dup1\n      revert\n    tag_1:\n      pop\n      jumpi(tag_2, lt(calldatasize, 0x04))\n      shr(0xe0, calldataload(0x00))\n      dup1\n      0x455f5024\n      eq\n      tag_3\n      jumpi\n      dup1\n      0x9507d39a\n      eq\n      tag_4\n      jumpi\n      dup1\n      0xb6a46b3b\n      eq\n      tag_5\n      jumpi\n      dup1\n      0xbc8bc2b4\n      eq\n      tag_6\n      jumpi\n      dup1\n      0xbe1c766b\n      eq\n      tag_7\n      jumpi\n      dup1\n      0xcd111614\n      eq\n      tag_8\n      jumpi\n    tag_2:\n      0x00\n      dup1\n      revert\n        /* \"contracts/Structs.sol\":715:835  function toggleCompleted(uint _index) public {... */\n    tag_3:\n      tag_9\n      0x04\n      dup1\n      calldatasize\n      sub\n      dup2\n      add\n      swap1\n      tag_10\n      swap2\n      swap1\n      tag_11\n      jump\t// in\n    tag_10:\n      tag_12\n      jump\t// in\n    tag_9:\n      stop\n        /* \"contracts/Structs.sol\":395:590  function get(uint _index) public view returns (string memory text, bool completed, string memory extra) {... */\n    tag_4:\n      tag_13\n      0x04\n      dup1\n      calldatasize\n      sub\n      dup2\n      add\n      swap1\n      tag_14\n      swap2\n      swap1\n      tag_11\n      jump\t// in\n    tag_14:\n      tag_15\n      jump\t// in\n    tag_13:\n      mload(0x40)\n      tag_16\n      swap4\n      swap3\n      swap2\n      swap1\n      tag_17\n      jump\t// in\n    tag_16:\n      mload(0x40)\n      dup1\n      swap2\n      sub\n      swap1\n      return\n        /* \"contracts/Structs.sol\":201:394  function create(string calldata _text) public {... */\n    tag_5:\n      tag_18\n      0x04\n      dup1\n      calldatasize\n      sub\n      dup2\n      add\n      swap1\n      tag_19\n      swap2\n      swap1\n      tag_20\n      jump\t// in\n    tag_19:\n      tag_21\n      jump\t// in\n    tag_18:\n      stop\n        /* \"contracts/Structs.sol\":179:198  Todo[] public todos */\n    tag_6:\n      tag_22\n      0x04\n      dup1\n      calldatasize\n      sub\n      dup2\n      add\n      swap1\n      tag_23\n      swap2\n      swap1\n      tag_11\n      jump\t// in\n    tag_23:\n      tag_24\n      jump\t// in\n    tag_22:\n      mload(0x40)\n      tag_25\n      swap3\n      swap2\n      swap1\n      tag_26\n      jump\t// in\n    tag_25:\n      mload(0x40)\n      dup1\n      swap2\n      sub\n      swap1\n      return\n        /* \"contracts/Structs.sol\":838:912  function getLength() public view returns (uint) {... */\n    tag_7:\n      tag_27\n      tag_28\n      jump\t// in\n    tag_27:\n      mload(0x40)\n      tag_29\n      swap2\n      swap1\n      tag_30\n      jump\t// in\n    tag_29:\n      mload(0x40)\n      dup1\n      swap2\n      sub\n      swap1\n      return\n        /* \"contracts/Structs.sol\":591:714  function updateText(uint _index, string calldata _text) public {... */\n    tag_8:\n      tag_31\n      0x04\n      dup1\n      calldatasize\n      sub\n      dup2\n      add\n      swap1\n      tag_32\n      swap2\n      swap1\n      tag_33\n      jump\t// in\n    tag_32:\n      tag_34\n      jump\t// in\n    tag_31:\n      stop\n        /* \"contracts/Structs.sol\":715:835  function toggleCompleted(uint _index) public {... */\n    tag_12:\n        /* \"contracts/Structs.sol\":763:780  Todo storage todo */\n      0x00\n        /* \"contracts/Structs.sol\":783:788  todos */\n      dup1\n        /* \"contracts/Structs.sol\":789:795  _index */\n      dup3\n        /* \"contracts/Structs.sol\":783:796  todos[_index] */\n      dup2\n      sload\n      dup2\n      lt\n      tag_36\n      jumpi\n      tag_37\n      tag_38\n      jump\t// in\n    tag_37:\n    tag_36:\n      swap1\n      0x00\n      mstore\n      keccak256(0x00, 0x20)\n      swap1\n      0x02\n      mul\n      add\n        /* \"contracts/Structs.sol\":763:796  Todo storage todo = todos[_index] */\n      swap1\n      pop\n        /* \"contracts/Structs.sol\":817:821  todo */\n      dup1\n        /* \"contracts/Structs.sol\":817:831  todo.completed */\n      0x01\n      add\n      0x00\n      swap1\n      sload\n      swap1\n      0x0100\n      exp\n      swap1\n      div\n      0xff\n      and\n        /* \"contracts/Structs.sol\":816:831  !todo.completed */\n      iszero\n        /* \"contracts/Structs.sol\":799:803  todo */\n      dup2\n        /* \"contracts/Structs.sol\":799:813  todo.completed */\n      0x01\n      add\n      0x00\n        /* \"contracts/Structs.sol\":799:831  todo.completed = !todo.completed */\n      0x0100\n      exp\n      dup2\n      sload\n      dup2\n      0xff\n      mul\n      not\n      and\n      swap1\n      dup4\n      iszero\n      iszero\n      mul\n      or\n      swap1\n      sstore\n      pop\n        /* \"contracts/Structs.sol\":760:835  {... */\n      pop\n        /* \"contracts/Structs.sol\":715:835  function toggleCompleted(uint _index) public {... */\n      pop\n      jump\t// out\n        /* \"contracts/Structs.sol\":395:590  function get(uint _index) public view returns (string memory text, bool completed, string memory extra) {... */\n    tag_15:\n        /* \"contracts/Structs.sol\":442:460  string memory text */\n      0x60\n        /* \"contracts/Structs.sol\":462:476  bool completed */\n      0x00\n        /* \"contracts/Structs.sol\":478:497  string memory extra */\n      0x60\n        /* \"contracts/Structs.sol\":502:519  Todo storage todo */\n      0x00\n        /* \"contracts/Structs.sol\":522:527  todos */\n      dup1\n        /* \"contracts/Structs.sol\":528:534  _index */\n      dup6\n        /* \"contracts/Structs.sol\":522:535  todos[_index] */\n      dup2\n      sload\n      dup2\n      lt\n      tag_41\n      jumpi\n      tag_42\n      tag_38\n      jump\t// in\n    tag_42:\n    tag_41:\n      swap1\n      0x00\n      mstore\n      keccak256(0x00, 0x20)\n      swap1\n      0x02\n      mul\n      add\n        /* \"contracts/Structs.sol\":502:535  Todo storage todo = todos[_index] */\n      swap1\n      pop\n        /* \"contracts/Structs.sol\":546:550  todo */\n      dup1\n        /* \"contracts/Structs.sol\":546:555  todo.text */\n      0x00\n      add\n        /* \"contracts/Structs.sol\":557:561  todo */\n      dup2\n        /* \"contracts/Structs.sol\":557:571  todo.completed */\n      0x01\n      add\n      0x00\n      swap1\n      sload\n      swap1\n      0x0100\n      exp\n      swap1\n      div\n      0xff\n      and\n        /* \"contracts/Structs.sol\":538:586  return (todo.text, todo.completed, \"extra text\") */\n      dup2\n      dup1\n      sload\n      tag_44\n      swap1\n      tag_45\n      jump\t// in\n    tag_44:\n      dup1\n      0x1f\n      add\n      0x20\n      dup1\n      swap2\n      div\n      mul\n      0x20\n      add\n      mload(0x40)\n      swap1\n      dup2\n      add\n      0x40\n      mstore\n      dup1\n      swap3\n      swap2\n      swap1\n      dup2\n      dup2\n      mstore\n      0x20\n      add\n      dup3\n      dup1\n      sload\n      tag_46\n      swap1\n      tag_45\n      jump\t// in\n    tag_46:\n      dup1\n      iszero\n      tag_47\n      jumpi\n      dup1\n      0x1f\n      lt\n      tag_48\n      jumpi\n      0x0100\n      dup1\n      dup4\n      sload\n      div\n      mul\n      dup4\n      mstore\n      swap2\n      0x20\n      add\n      swap2\n      jump(tag_47)\n    tag_48:\n      dup3\n      add\n      swap2\n      swap1\n      0x00\n      mstore\n      keccak256(0x00, 0x20)\n      swap1\n    tag_49:\n      dup2\n      sload\n      dup2\n      mstore\n      swap1\n      0x01\n      add\n      swap1\n      0x20\n      add\n      dup1\n      dup4\n      gt\n      tag_49\n      jumpi\n      dup3\n      swap1\n      sub\n      0x1f\n      and\n      dup3\n      add\n      swap2\n    tag_47:\n      pop\n      pop\n      pop\n      pop\n      pop\n      swap2\n      pop\n      mload(0x40)\n      dup1\n      0x40\n      add\n      0x40\n      mstore\n      dup1\n      0x0a\n      dup2\n      mstore\n      0x20\n      add\n      0x6578747261207465787400000000000000000000000000000000000000000000\n      dup2\n      mstore\n      pop\n      swap4\n      pop\n      swap4\n      pop\n      swap4\n      pop\n      pop\n        /* \"contracts/Structs.sol\":395:590  function get(uint _index) public view returns (string memory text, bool completed, string memory extra) {... */\n      swap2\n      swap4\n      swap1\n      swap3\n      pop\n      jump\t// out\n        /* \"contracts/Structs.sol\":201:394  function create(string calldata _text) public {... */\n    tag_21:\n        /* \"contracts/Structs.sol\":250:255  todos */\n      0x00\n        /* \"contracts/Structs.sol\":261:279  Todo(_text, false) */\n      mload(0x40)\n      dup1\n      0x40\n      add\n      0x40\n      mstore\n      dup1\n        /* \"contracts/Structs.sol\":266:271  _text */\n      dup5\n      dup5\n        /* \"contracts/Structs.sol\":261:279  Todo(_text, false) */\n      dup1\n      dup1\n      0x1f\n      add\n      0x20\n      dup1\n      swap2\n      div\n      mul\n      0x20\n      add\n      mload(0x40)\n      swap1\n      dup2\n      add\n      0x40\n      mstore\n      dup1\n      swap4\n      swap3\n      swap2\n      swap1\n      dup2\n      dup2\n      mstore\n      0x20\n      add\n      dup4\n      dup4\n      dup1\n      dup3\n      dup5\n      calldatacopy\n      0x00\n      dup2\n      dup5\n      add\n      mstore\n      not(0x1f)\n      0x1f\n      dup3\n      add\n      and\n      swap1\n      pop\n      dup1\n      dup4\n      add\n      swap3\n      pop\n      pop\n      pop\n      pop\n      pop\n      pop\n      pop\n      dup2\n      mstore\n      0x20\n      add\n        /* \"contracts/Structs.sol\":273:278  false */\n      0x00\n        /* \"contracts/Structs.sol\":261:279  Todo(_text, false) */\n      iszero\n      iszero\n      dup2\n      mstore\n      pop\n        /* \"contracts/Structs.sol\":250:280  todos.push(Todo(_text, false)) */\n      swap1\n      dup1\n      0x01\n      dup2\n      sload\n      add\n      dup1\n      dup3\n      sstore\n      dup1\n      swap2\n      pop\n      pop\n      0x01\n      swap1\n      sub\n      swap1\n      0x00\n      mstore\n      keccak256(0x00, 0x20)\n      swap1\n      0x02\n      mul\n      add\n      0x00\n      swap1\n      swap2\n      swap1\n      swap2\n      swap1\n      swap2\n      pop\n      0x00\n      dup3\n      add\n      mload\n      dup2\n      0x00\n      add\n      swap1\n      dup2\n      tag_52\n      swap2\n      swap1\n      tag_53\n      jump\t// in\n    tag_52:\n      pop\n      0x20\n      dup3\n      add\n      mload\n      dup2\n      0x01\n      add\n      exp(0x0100, 0x00)\n      dup2\n      sload\n      dup2\n      0xff\n      mul\n      not\n      and\n      swap1\n      dup4\n      iszero\n      iszero\n      mul\n      or\n      swap1\n      sstore\n      pop\n      pop\n      pop\n        /* \"contracts/Structs.sol\":283:288  todos */\n      0x00\n        /* \"contracts/Structs.sol\":294:331  Todo({text: _text, completed: false}) */\n      mload(0x40)\n      dup1\n      0x40\n      add\n      0x40\n      mstore\n      dup1\n        /* \"contracts/Structs.sol\":306:311  _text */\n      dup5\n      dup5\n        /* \"contracts/Structs.sol\":294:331  Todo({text: _text, completed: false}) */\n      dup1\n      dup1\n      0x1f\n      add\n      0x20\n      dup1\n      swap2\n      div\n      mul\n      0x20\n      add\n      mload(0x40)\n      swap1\n      dup2\n      add\n      0x40\n      mstore\n      dup1\n      swap4\n      swap3\n      swap2\n      swap1\n      dup2\n      dup2\n      mstore\n      0x20\n      add\n      dup4\n      dup4\n      dup1\n      dup3\n      dup5\n      calldatacopy\n      0x00\n      dup2\n      dup5\n      add\n      mstore\n      not(0x1f)\n      0x1f\n      dup3\n      add\n      and\n      swap1\n      pop\n      dup1\n      dup4\n      add\n      swap3\n      pop\n      pop\n      pop\n      pop\n      pop\n      pop\n      pop\n      dup2\n      mstore\n      0x20\n      add\n        /* \"contracts/Structs.sol\":324:329  false */\n      0x00\n        /* \"contracts/Structs.sol\":294:331  Todo({text: _text, completed: false}) */\n      iszero\n      iszero\n      dup2\n      mstore\n      pop\n        /* \"contracts/Structs.sol\":283:332  todos.push(Todo({text: _text, completed: false})) */\n      swap1\n      dup1\n      0x01\n      dup2\n      sload\n      add\n      dup1\n      dup3\n      sstore\n      dup1\n      swap2\n      pop\n      pop\n      0x01\n      swap1\n      sub\n      swap1\n      0x00\n      mstore\n      keccak256(0x00, 0x20)\n      swap1\n      0x02\n      mul\n      add\n      0x00\n      swap1\n      swap2\n      swap1\n      swap2\n      swap1\n      swap2\n      pop\n      0x00\n      dup3\n      add\n      mload\n      dup2\n      0x00\n      add\n      swap1\n      dup2\n      tag_55\n      swap2\n      swap1\n      tag_53\n      jump\t// in\n    tag_55:\n      pop\n      0x20\n      dup3\n      add\n      mload\n      dup2\n      0x01\n      add\n      exp(0x0100, 0x00)\n      dup2\n      sload\n      dup2\n      0xff\n      mul\n      not\n      and\n      swap1\n      dup4\n      iszero\n      iszero\n      mul\n      or\n      swap1\n      sstore\n      pop\n      pop\n      pop\n        /* \"contracts/Structs.sol\":335:351  Todo memory todo */\n      tag_56\n      tag_57\n      jump\t// in\n    tag_56:\n        /* \"contracts/Structs.sol\":366:371  _text */\n      dup3\n      dup3\n        /* \"contracts/Structs.sol\":354:371  todo.text = _text */\n      dup1\n      dup1\n      0x1f\n      add\n      0x20\n      dup1\n      swap2\n      div\n      mul\n      0x20\n      add\n      mload(0x40)\n      swap1\n      dup2\n      add\n      0x40\n      mstore\n      dup1\n      swap4\n      swap3\n      swap2\n      swap1\n      dup2\n      dup2\n      mstore\n      0x20\n      add\n      dup4\n      dup4\n      dup1\n      dup3\n      dup5\n      calldatacopy\n      0x00\n      dup2\n      dup5\n      add\n      mstore\n      not(0x1f)\n      0x1f\n      dup3\n      add\n      and\n      swap1\n      pop\n      dup1\n      dup4\n      add\n      swap3\n      pop\n      pop\n      pop\n      pop\n      pop\n      pop\n      pop\n        /* \"contracts/Structs.sol\":354:358  todo */\n      dup2\n        /* \"contracts/Structs.sol\":354:363  todo.text */\n      0x00\n      add\n        /* \"contracts/Structs.sol\":354:371  todo.text = _text */\n      dup2\n      swap1\n      mstore\n      pop\n        /* \"contracts/Structs.sol\":374:379  todos */\n      0x00\n        /* \"contracts/Structs.sol\":385:389  todo */\n      dup2\n        /* \"contracts/Structs.sol\":374:390  todos.push(todo) */\n      swap1\n      dup1\n      0x01\n      dup2\n      sload\n      add\n      dup1\n      dup3\n      sstore\n      dup1\n      swap2\n      pop\n      pop\n      0x01\n      swap1\n      sub\n      swap1\n      0x00\n      mstore\n      keccak256(0x00, 0x20)\n      swap1\n      0x02\n      mul\n      add\n      0x00\n      swap1\n      swap2\n      swap1\n      swap2\n      swap1\n      swap2\n      pop\n      0x00\n      dup3\n      add\n      mload\n      dup2\n      0x00\n      add\n      swap1\n      dup2\n      tag_59\n      swap2\n      swap1\n      tag_53\n      jump\t// in\n    tag_59:\n      pop\n      0x20\n      dup3\n      add\n      mload\n      dup2\n      0x01\n      add\n      exp(0x0100, 0x00)\n      dup2\n      sload\n      dup2\n      0xff\n      mul\n      not\n      and\n      swap1\n      dup4\n      iszero\n      iszero\n      mul\n      or\n      swap1\n      sstore\n      pop\n      pop\n      pop\n        /* \"contracts/Structs.sol\":247:394  {... */\n      pop\n        /* \"contracts/Structs.sol\":201:394  function create(string calldata _text) public {... */\n      pop\n      pop\n      jump\t// out\n        /* \"contracts/Structs.sol\":179:198  Todo[] public todos */\n    tag_24:\n      0x00\n      dup2\n      dup2\n      sload\n      dup2\n      lt\n      tag_60\n      jumpi\n      0x00\n      dup1\n      revert\n    tag_60:\n      swap1\n      0x00\n      mstore\n      keccak256(0x00, 0x20)\n      swap1\n      0x02\n      mul\n      add\n      0x00\n      swap2\n      pop\n      swap1\n      pop\n      dup1\n      0x00\n      add\n      dup1\n      sload\n      tag_62\n      swap1\n      tag_45\n      jump\t// in\n    tag_62:\n      dup1\n      0x1f\n      add\n      0x20\n      dup1\n      swap2\n      div\n      mul\n      0x20\n      add\n      mload(0x40)\n      swap1\n      dup2\n      add\n      0x40\n      mstore\n      dup1\n      swap3\n      swap2\n      swap1\n      dup2\n      dup2\n      mstore\n      0x20\n      add\n      dup3\n      dup1\n      sload\n      tag_63\n      swap1\n      tag_45\n      jump\t// in\n    tag_63:\n      dup1\n      iszero\n      tag_64\n      jumpi\n      dup1\n      0x1f\n      lt\n      tag_65\n      jumpi\n      0x0100\n      dup1\n      dup4\n      sload\n      div\n      mul\n      dup4\n      mstore\n      swap2\n      0x20\n      add\n      swap2\n      jump(tag_64)\n    tag_65:\n      dup3\n      add\n      swap2\n      swap1\n      0x00\n      mstore\n      keccak256(0x00, 0x20)\n      swap1\n    tag_66:\n      dup2\n      sload\n      dup2\n      mstore\n      swap1\n      0x01\n      add\n      swap1\n      0x20\n      add\n      dup1\n      dup4\n      gt\n      tag_66\n      jumpi\n      dup3\n      swap1\n      sub\n      0x1f\n      and\n      dup3\n      add\n      swap2\n    tag_64:\n      pop\n      pop\n      pop\n      pop\n      pop\n      swap1\n      dup1\n      0x01\n      add\n      0x00\n      swap1\n      sload\n      swap1\n      0x0100\n      exp\n      swap1\n      div\n      0xff\n      and\n      swap1\n      pop\n      dup3\n      jump\t// out\n        /* \"contracts/Structs.sol\":838:912  function getLength() public view returns (uint) {... */\n    tag_28:\n        /* \"contracts/Structs.sol\":880:884  uint */\n      0x00\n        /* \"contracts/Structs.sol\":896:901  todos */\n      dup1\n        /* \"contracts/Structs.sol\":896:908  todos.length */\n      dup1\n      sload\n      swap1\n      pop\n        /* \"contracts/Structs.sol\":889:908  return todos.length */\n      swap1\n      pop\n        /* \"contracts/Structs.sol\":838:912  function getLength() public view returns (uint) {... */\n      swap1\n      jump\t// out\n        /* \"contracts/Structs.sol\":591:714  function updateText(uint _index, string calldata _text) public {... */\n    tag_34:\n        /* \"contracts/Structs.sol\":657:674  Todo storage todo */\n      0x00\n        /* \"contracts/Structs.sol\":677:682  todos */\n      dup1\n        /* \"contracts/Structs.sol\":683:689  _index */\n      dup5\n        /* \"contracts/Structs.sol\":677:690  todos[_index] */\n      dup2\n      sload\n      dup2\n      lt\n      tag_69\n      jumpi\n      tag_70\n      tag_38\n      jump\t// in\n    tag_70:\n    tag_69:\n      swap1\n      0x00\n      mstore\n      keccak256(0x00, 0x20)\n      swap1\n      0x02\n      mul\n      add\n        /* \"contracts/Structs.sol\":657:690  Todo storage todo = todos[_index] */\n      swap1\n      pop\n        /* \"contracts/Structs.sol\":705:710  _text */\n      dup3\n      dup3\n        /* \"contracts/Structs.sol\":693:697  todo */\n      dup3\n        /* \"contracts/Structs.sol\":693:702  todo.text */\n      0x00\n      add\n        /* \"contracts/Structs.sol\":693:710  todo.text = _text */\n      swap2\n      dup3\n      tag_72\n      swap3\n      swap2\n      swap1\n      tag_73\n      jump\t// in\n    tag_72:\n      pop\n        /* \"contracts/Structs.sol\":654:714  {... */\n      pop\n        /* \"contracts/Structs.sol\":591:714  function updateText(uint _index, string calldata _text) public {... */\n      pop\n      pop\n      pop\n      jump\t// out\n    tag_57:\n      mload(0x40)\n      dup1\n      0x40\n      add\n      0x40\n      mstore\n      dup1\n      0x60\n      dup2\n      mstore\n      0x20\n      add\n      iszero(iszero(0x00))\n      dup2\n      mstore\n      pop\n      swap1\n      jump\t// out\n        /* \"#utility.yul\":88:205   */\n    tag_75:\n        /* \"#utility.yul\":197:198   */\n      0x00\n        /* \"#utility.yul\":194:195   */\n      dup1\n        /* \"#utility.yul\":187:199   */\n      revert\n        /* \"#utility.yul\":211:328   */\n    tag_76:\n        /* \"#utility.yul\":320:321   */\n      0x00\n        /* \"#utility.yul\":317:318   */\n      dup1\n        /* \"#utility.yul\":310:322   */\n      revert\n        /* \"#utility.yul\":334:411   */\n    tag_77:\n        /* \"#utility.yul\":371:378   */\n      0x00\n        /* \"#utility.yul\":400:405   */\n      dup2\n        /* \"#utility.yul\":389:405   */\n      swap1\n      pop\n        /* \"#utility.yul\":334:411   */\n      swap2\n      swap1\n      pop\n      jump\t// out\n        /* \"#utility.yul\":417:539   */\n    tag_78:\n        /* \"#utility.yul\":490:514   */\n      tag_116\n        /* \"#utility.yul\":508:513   */\n      dup2\n        /* \"#utility.yul\":490:514   */\n      tag_77\n      jump\t// in\n    tag_116:\n        /* \"#utility.yul\":483:488   */\n      dup2\n        /* \"#utility.yul\":480:515   */\n      eq\n        /* \"#utility.yul\":470:533   */\n      tag_117\n      jumpi\n        /* \"#utility.yul\":529:530   */\n      0x00\n        /* \"#utility.yul\":526:527   */\n      dup1\n        /* \"#utility.yul\":519:531   */\n      revert\n        /* \"#utility.yul\":470:533   */\n    tag_117:\n        /* \"#utility.yul\":417:539   */\n      pop\n      jump\t// out\n        /* \"#utility.yul\":545:684   */\n    tag_79:\n        /* \"#utility.yul\":591:596   */\n      0x00\n        /* \"#utility.yul\":629:635   */\n      dup2\n        /* \"#utility.yul\":616:636   */\n      calldataload\n        /* \"#utility.yul\":607:636   */\n      swap1\n      pop\n        /* \"#utility.yul\":645:678   */\n      tag_119\n        /* \"#utility.yul\":672:677   */\n      dup2\n        /* \"#utility.yul\":645:678   */\n      tag_78\n      jump\t// in\n    tag_119:\n        /* \"#utility.yul\":545:684   */\n      swap3\n      swap2\n      pop\n      pop\n      jump\t// out\n        /* \"#utility.yul\":690:1019   */\n    tag_11:\n        /* \"#utility.yul\":749:755   */\n      0x00\n        /* \"#utility.yul\":798:800   */\n      0x20\n        /* \"#utility.yul\":786:795   */\n      dup3\n        /* \"#utility.yul\":777:784   */\n      dup5\n        /* \"#utility.yul\":773:796   */\n      sub\n        /* \"#utility.yul\":769:801   */\n      slt\n        /* \"#utility.yul\":766:885   */\n      iszero\n      tag_121\n      jumpi\n        /* \"#utility.yul\":804:883   */\n      tag_122\n      tag_75\n      jump\t// in\n    tag_122:\n        /* \"#utility.yul\":766:885   */\n    tag_121:\n        /* \"#utility.yul\":924:925   */\n      0x00\n        /* \"#utility.yul\":949:1002   */\n      tag_123\n        /* \"#utility.yul\":994:1001   */\n      dup5\n        /* \"#utility.yul\":985:991   */\n      dup3\n        /* \"#utility.yul\":974:983   */\n      dup6\n        /* \"#utility.yul\":970:992   */\n      add\n        /* \"#utility.yul\":949:1002   */\n      tag_79\n      jump\t// in\n    tag_123:\n        /* \"#utility.yul\":939:1002   */\n      swap2\n      pop\n        /* \"#utility.yul\":895:1012   */\n      pop\n        /* \"#utility.yul\":690:1019   */\n      swap3\n      swap2\n      pop\n      pop\n      jump\t// out\n        /* \"#utility.yul\":1025:1124   */\n    tag_80:\n        /* \"#utility.yul\":1077:1083   */\n      0x00\n        /* \"#utility.yul\":1111:1116   */\n      dup2\n        /* \"#utility.yul\":1105:1117   */\n      mload\n        /* \"#utility.yul\":1095:1117   */\n      swap1\n      pop\n        /* \"#utility.yul\":1025:1124   */\n      swap2\n      swap1\n      pop\n      jump\t// out\n        /* \"#utility.yul\":1130:1299   */\n    tag_81:\n        /* \"#utility.yul\":1214:1225   */\n      0x00\n        /* \"#utility.yul\":1248:1254   */\n      dup3\n        /* \"#utility.yul\":1243:1246   */\n      dup3\n        /* \"#utility.yul\":1236:1255   */\n      mstore\n        /* \"#utility.yul\":1288:1292   */\n      0x20\n        /* \"#utility.yul\":1283:1286   */\n      dup3\n        /* \"#utility.yul\":1279:1293   */\n      add\n        /* \"#utility.yul\":1264:1293   */\n      swap1\n      pop\n        /* \"#utility.yul\":1130:1299   */\n      swap3\n      swap2\n      pop\n      pop\n      jump\t// out\n        /* \"#utility.yul\":1305:1444   */\n    tag_82:\n        /* \"#utility.yul\":1394:1400   */\n      dup3\n        /* \"#utility.yul\":1389:1392   */\n      dup2\n        /* \"#utility.yul\":1384:1387   */\n      dup4\n        /* \"#utility.yul\":1378:1401   */\n      mcopy\n        /* \"#utility.yul\":1435:1436   */\n      0x00\n        /* \"#utility.yul\":1426:1432   */\n      dup4\n        /* \"#utility.yul\":1421:1424   */\n      dup4\n        /* \"#utility.yul\":1417:1433   */\n      add\n        /* \"#utility.yul\":1410:1437   */\n      mstore\n        /* \"#utility.yul\":1305:1444   */\n      pop\n      pop\n      pop\n      jump\t// out\n        /* \"#utility.yul\":1450:1552   */\n    tag_83:\n        /* \"#utility.yul\":1491:1497   */\n      0x00\n        /* \"#utility.yul\":1542:1544   */\n      0x1f\n        /* \"#utility.yul\":1538:1545   */\n      not\n        /* \"#utility.yul\":1533:1535   */\n      0x1f\n        /* \"#utility.yul\":1526:1531   */\n      dup4\n        /* \"#utility.yul\":1522:1536   */\n      add\n        /* \"#utility.yul\":1518:1546   */\n      and\n        /* \"#utility.yul\":1508:1546   */\n      swap1\n      pop\n        /* \"#utility.yul\":1450:1552   */\n      swap2\n      swap1\n      pop\n      jump\t// out\n        /* \"#utility.yul\":1558:1935   */\n    tag_84:\n        /* \"#utility.yul\":1646:1649   */\n      0x00\n        /* \"#utility.yul\":1674:1713   */\n      tag_129\n        /* \"#utility.yul\":1707:1712   */\n      dup3\n        /* \"#utility.yul\":1674:1713   */\n      tag_80\n      jump\t// in\n    tag_129:\n        /* \"#utility.yul\":1729:1800   */\n      tag_130\n        /* \"#utility.yul\":1793:1799   */\n      dup2\n        /* \"#utility.yul\":1788:1791   */\n      dup6\n        /* \"#utility.yul\":1729:1800   */\n      tag_81\n      jump\t// in\n    tag_130:\n        /* \"#utility.yul\":1722:1800   */\n      swap4\n      pop\n        /* \"#utility.yul\":1809:1874   */\n      tag_131\n        /* \"#utility.yul\":1867:1873   */\n      dup2\n        /* \"#utility.yul\":1862:1865   */\n      dup6\n        /* \"#utility.yul\":1855:1859   */\n      0x20\n        /* \"#utility.yul\":1848:1853   */\n      dup7\n        /* \"#utility.yul\":1844:1860   */\n      add\n        /* \"#utility.yul\":1809:1874   */\n      tag_82\n      jump\t// in\n    tag_131:\n        /* \"#utility.yul\":1899:1928   */\n      tag_132\n        /* \"#utility.yul\":1921:1927   */\n      dup2\n        /* \"#utility.yul\":1899:1928   */\n      tag_83\n      jump\t// in\n    tag_132:\n        /* \"#utility.yul\":1894:1897   */\n      dup5\n        /* \"#utility.yul\":1890:1929   */\n      add\n        /* \"#utility.yul\":1883:1929   */\n      swap2\n      pop\n        /* \"#utility.yul\":1650:1935   */\n      pop\n        /* \"#utility.yul\":1558:1935   */\n      swap3\n      swap2\n      pop\n      pop\n      jump\t// out\n        /* \"#utility.yul\":1941:2031   */\n    tag_85:\n        /* \"#utility.yul\":1975:1982   */\n      0x00\n        /* \"#utility.yul\":2018:2023   */\n      dup2\n        /* \"#utility.yul\":2011:2024   */\n      iszero\n        /* \"#utility.yul\":2004:2025   */\n      iszero\n        /* \"#utility.yul\":1993:2025   */\n      swap1\n      pop\n        /* \"#utility.yul\":1941:2031   */\n      swap2\n      swap1\n      pop\n      jump\t// out\n        /* \"#utility.yul\":2037:2146   */\n    tag_86:\n        /* \"#utility.yul\":2118:2139   */\n      tag_135\n        /* \"#utility.yul\":2133:2138   */\n      dup2\n        /* \"#utility.yul\":2118:2139   */\n      tag_85\n      jump\t// in\n    tag_135:\n        /* \"#utility.yul\":2113:2116   */\n      dup3\n        /* \"#utility.yul\":2106:2140   */\n      mstore\n        /* \"#utility.yul\":2037:2146   */\n      pop\n      pop\n      jump\t// out\n        /* \"#utility.yul\":2152:2764   */\n    tag_17:\n        /* \"#utility.yul\":2335:2339   */\n      0x00\n        /* \"#utility.yul\":2373:2375   */\n      0x60\n        /* \"#utility.yul\":2362:2371   */\n      dup3\n        /* \"#utility.yul\":2358:2376   */\n      add\n        /* \"#utility.yul\":2350:2376   */\n      swap1\n      pop\n        /* \"#utility.yul\":2422:2431   */\n      dup2\n        /* \"#utility.yul\":2416:2420   */\n      dup2\n        /* \"#utility.yul\":2412:2432   */\n      sub\n        /* \"#utility.yul\":2408:2409   */\n      0x00\n        /* \"#utility.yul\":2397:2406   */\n      dup4\n        /* \"#utility.yul\":2393:2410   */\n      add\n        /* \"#utility.yul\":2386:2433   */\n      mstore\n        /* \"#utility.yul\":2450:2528   */\n      tag_137\n        /* \"#utility.yul\":2523:2527   */\n      dup2\n        /* \"#utility.yul\":2514:2520   */\n      dup7\n        /* \"#utility.yul\":2450:2528   */\n      tag_84\n      jump\t// in\n    tag_137:\n        /* \"#utility.yul\":2442:2528   */\n      swap1\n      pop\n        /* \"#utility.yul\":2538:2604   */\n      tag_138\n        /* \"#utility.yul\":2600:2602   */\n      0x20\n        /* \"#utility.yul\":2589:2598   */\n      dup4\n        /* \"#utility.yul\":2585:2603   */\n      add\n        /* \"#utility.yul\":2576:2582   */\n      dup6\n        /* \"#utility.yul\":2538:2604   */\n      tag_86\n      jump\t// in\n    tag_138:\n        /* \"#utility.yul\":2651:2660   */\n      dup2\n        /* \"#utility.yul\":2645:2649   */\n      dup2\n        /* \"#utility.yul\":2641:2661   */\n      sub\n        /* \"#utility.yul\":2636:2638   */\n      0x40\n        /* \"#utility.yul\":2625:2634   */\n      dup4\n        /* \"#utility.yul\":2621:2639   */\n      add\n        /* \"#utility.yul\":2614:2662   */\n      mstore\n        /* \"#utility.yul\":2679:2757   */\n      tag_139\n        /* \"#utility.yul\":2752:2756   */\n      dup2\n        /* \"#utility.yul\":2743:2749   */\n      dup5\n        /* \"#utility.yul\":2679:2757   */\n      tag_84\n      jump\t// in\n    tag_139:\n        /* \"#utility.yul\":2671:2757   */\n      swap1\n      pop\n        /* \"#utility.yul\":2152:2764   */\n      swap5\n      swap4\n      pop\n      pop\n      pop\n      pop\n      jump\t// out\n        /* \"#utility.yul\":2770:2887   */\n    tag_87:\n        /* \"#utility.yul\":2879:2880   */\n      0x00\n        /* \"#utility.yul\":2876:2877   */\n      dup1\n        /* \"#utility.yul\":2869:2881   */\n      revert\n        /* \"#utility.yul\":2893:3010   */\n    tag_88:\n        /* \"#utility.yul\":3002:3003   */\n      0x00\n        /* \"#utility.yul\":2999:3000   */\n      dup1\n        /* \"#utility.yul\":2992:3004   */\n      revert\n        /* \"#utility.yul\":3016:3133   */\n    tag_89:\n        /* \"#utility.yul\":3125:3126   */\n      0x00\n        /* \"#utility.yul\":3122:3123   */\n      dup1\n        /* \"#utility.yul\":3115:3127   */\n      revert\n        /* \"#utility.yul\":3153:3706   */\n    tag_90:\n        /* \"#utility.yul\":3211:3219   */\n      0x00\n        /* \"#utility.yul\":3221:3227   */\n      dup1\n        /* \"#utility.yul\":3271:3274   */\n      dup4\n        /* \"#utility.yul\":3264:3268   */\n      0x1f\n        /* \"#utility.yul\":3256:3262   */\n      dup5\n        /* \"#utility.yul\":3252:3269   */\n      add\n        /* \"#utility.yul\":3248:3275   */\n      slt\n        /* \"#utility.yul\":3238:3360   */\n      tag_144\n      jumpi\n        /* \"#utility.yul\":3279:3358   */\n      tag_145\n      tag_87\n      jump\t// in\n    tag_145:\n        /* \"#utility.yul\":3238:3360   */\n    tag_144:\n        /* \"#utility.yul\":3392:3398   */\n      dup3\n        /* \"#utility.yul\":3379:3399   */\n      calldataload\n        /* \"#utility.yul\":3369:3399   */\n      swap1\n      pop\n        /* \"#utility.yul\":3422:3440   */\n      0xffffffffffffffff\n        /* \"#utility.yul\":3414:3420   */\n      dup2\n        /* \"#utility.yul\":3411:3441   */\n      gt\n        /* \"#utility.yul\":3408:3525   */\n      iszero\n      tag_146\n      jumpi\n        /* \"#utility.yul\":3444:3523   */\n      tag_147\n      tag_88\n      jump\t// in\n    tag_147:\n        /* \"#utility.yul\":3408:3525   */\n    tag_146:\n        /* \"#utility.yul\":3558:3562   */\n      0x20\n        /* \"#utility.yul\":3550:3556   */\n      dup4\n        /* \"#utility.yul\":3546:3563   */\n      add\n        /* \"#utility.yul\":3534:3563   */\n      swap2\n      pop\n        /* \"#utility.yul\":3612:3615   */\n      dup4\n        /* \"#utility.yul\":3604:3608   */\n      0x01\n        /* \"#utility.yul\":3596:3602   */\n      dup3\n        /* \"#utility.yul\":3592:3609   */\n      mul\n        /* \"#utility.yul\":3582:3590   */\n      dup4\n        /* \"#utility.yul\":3578:3610   */\n      add\n        /* \"#utility.yul\":3575:3616   */\n      gt\n        /* \"#utility.yul\":3572:3700   */\n      iszero\n      tag_148\n      jumpi\n        /* \"#utility.yul\":3619:3698   */\n      tag_149\n      tag_89\n      jump\t// in\n    tag_149:\n        /* \"#utility.yul\":3572:3700   */\n    tag_148:\n        /* \"#utility.yul\":3153:3706   */\n      swap3\n      pop\n      swap3\n      swap1\n      pop\n      jump\t// out\n        /* \"#utility.yul\":3712:4241   */\n    tag_20:\n        /* \"#utility.yul\":3783:3789   */\n      0x00\n        /* \"#utility.yul\":3791:3797   */\n      dup1\n        /* \"#utility.yul\":3840:3842   */\n      0x20\n        /* \"#utility.yul\":3828:3837   */\n      dup4\n        /* \"#utility.yul\":3819:3826   */\n      dup6\n        /* \"#utility.yul\":3815:3838   */\n      sub\n        /* \"#utility.yul\":3811:3843   */\n      slt\n        /* \"#utility.yul\":3808:3927   */\n      iszero\n      tag_151\n      jumpi\n        /* \"#utility.yul\":3846:3925   */\n      tag_152\n      tag_75\n      jump\t// in\n    tag_152:\n        /* \"#utility.yul\":3808:3927   */\n    tag_151:\n        /* \"#utility.yul\":3994:3995   */\n      0x00\n        /* \"#utility.yul\":3983:3992   */\n      dup4\n        /* \"#utility.yul\":3979:3996   */\n      add\n        /* \"#utility.yul\":3966:3997   */\n      calldataload\n        /* \"#utility.yul\":4024:4042   */\n      0xffffffffffffffff\n        /* \"#utility.yul\":4016:4022   */\n      dup2\n        /* \"#utility.yul\":4013:4043   */\n      gt\n        /* \"#utility.yul\":4010:4127   */\n      iszero\n      tag_153\n      jumpi\n        /* \"#utility.yul\":4046:4125   */\n      tag_154\n      tag_76\n      jump\t// in\n    tag_154:\n        /* \"#utility.yul\":4010:4127   */\n    tag_153:\n        /* \"#utility.yul\":4159:4224   */\n      tag_155\n        /* \"#utility.yul\":4216:4223   */\n      dup6\n        /* \"#utility.yul\":4207:4213   */\n      dup3\n        /* \"#utility.yul\":4196:4205   */\n      dup7\n        /* \"#utility.yul\":4192:4214   */\n      add\n        /* \"#utility.yul\":4159:4224   */\n      tag_90\n      jump\t// in\n    tag_155:\n        /* \"#utility.yul\":4141:4224   */\n      swap3\n      pop\n      swap3\n      pop\n        /* \"#utility.yul\":3937:4234   */\n      pop\n        /* \"#utility.yul\":3712:4241   */\n      swap3\n      pop\n      swap3\n      swap1\n      pop\n      jump\t// out\n        /* \"#utility.yul\":4247:4658   */\n    tag_26:\n        /* \"#utility.yul\":4382:4386   */\n      0x00\n        /* \"#utility.yul\":4420:4422   */\n      0x40\n        /* \"#utility.yul\":4409:4418   */\n      dup3\n        /* \"#utility.yul\":4405:4423   */\n      add\n        /* \"#utility.yul\":4397:4423   */\n      swap1\n      pop\n        /* \"#utility.yul\":4469:4478   */\n      dup2\n        /* \"#utility.yul\":4463:4467   */\n      dup2\n        /* \"#utility.yul\":4459:4479   */\n      sub\n        /* \"#utility.yul\":4455:4456   */\n      0x00\n        /* \"#utility.yul\":4444:4453   */\n      dup4\n        /* \"#utility.yul\":4440:4457   */\n      add\n        /* \"#utility.yul\":4433:4480   */\n      mstore\n        /* \"#utility.yul\":4497:4575   */\n      tag_157\n        /* \"#utility.yul\":4570:4574   */\n      dup2\n        /* \"#utility.yul\":4561:4567   */\n      dup6\n        /* \"#utility.yul\":4497:4575   */\n      tag_84\n      jump\t// in\n    tag_157:\n        /* \"#utility.yul\":4489:4575   */\n      swap1\n      pop\n        /* \"#utility.yul\":4585:4651   */\n      tag_158\n        /* \"#utility.yul\":4647:4649   */\n      0x20\n        /* \"#utility.yul\":4636:4645   */\n      dup4\n        /* \"#utility.yul\":4632:4650   */\n      add\n        /* \"#utility.yul\":4623:4629   */\n      dup5\n        /* \"#utility.yul\":4585:4651   */\n      tag_86\n      jump\t// in\n    tag_158:\n        /* \"#utility.yul\":4247:4658   */\n      swap4\n      swap3\n      pop\n      pop\n      pop\n      jump\t// out\n        /* \"#utility.yul\":4664:4782   */\n    tag_91:\n        /* \"#utility.yul\":4751:4775   */\n      tag_160\n        /* \"#utility.yul\":4769:4774   */\n      dup2\n        /* \"#utility.yul\":4751:4775   */\n      tag_77\n      jump\t// in\n    tag_160:\n        /* \"#utility.yul\":4746:4749   */\n      dup3\n        /* \"#utility.yul\":4739:4776   */\n      mstore\n        /* \"#utility.yul\":4664:4782   */\n      pop\n      pop\n      jump\t// out\n        /* \"#utility.yul\":4788:5010   */\n    tag_30:\n        /* \"#utility.yul\":4881:4885   */\n      0x00\n        /* \"#utility.yul\":4919:4921   */\n      0x20\n        /* \"#utility.yul\":4908:4917   */\n      dup3\n        /* \"#utility.yul\":4904:4922   */\n      add\n        /* \"#utility.yul\":4896:4922   */\n      swap1\n      pop\n        /* \"#utility.yul\":4932:5003   */\n      tag_162\n        /* \"#utility.yul\":5000:5001   */\n      0x00\n        /* \"#utility.yul\":4989:4998   */\n      dup4\n        /* \"#utility.yul\":4985:5002   */\n      add\n        /* \"#utility.yul\":4976:4982   */\n      dup5\n        /* \"#utility.yul\":4932:5003   */\n      tag_91\n      jump\t// in\n    tag_162:\n        /* \"#utility.yul\":4788:5010   */\n      swap3\n      swap2\n      pop\n      pop\n      jump\t// out\n        /* \"#utility.yul\":5016:5690   */\n    tag_33:\n        /* \"#utility.yul\":5096:5102   */\n      0x00\n        /* \"#utility.yul\":5104:5110   */\n      dup1\n        /* \"#utility.yul\":5112:5118   */\n      0x00\n        /* \"#utility.yul\":5161:5163   */\n      0x40\n        /* \"#utility.yul\":5149:5158   */\n      dup5\n        /* \"#utility.yul\":5140:5147   */\n      dup7\n        /* \"#utility.yul\":5136:5159   */\n      sub\n        /* \"#utility.yul\":5132:5164   */\n      slt\n        /* \"#utility.yul\":5129:5248   */\n      iszero\n      tag_164\n      jumpi\n        /* \"#utility.yul\":5167:5246   */\n      tag_165\n      tag_75\n      jump\t// in\n    tag_165:\n        /* \"#utility.yul\":5129:5248   */\n    tag_164:\n        /* \"#utility.yul\":5287:5288   */\n      0x00\n        /* \"#utility.yul\":5312:5365   */\n      tag_166\n        /* \"#utility.yul\":5357:5364   */\n      dup7\n        /* \"#utility.yul\":5348:5354   */\n      dup3\n        /* \"#utility.yul\":5337:5346   */\n      dup8\n        /* \"#utility.yul\":5333:5355   */\n      add\n        /* \"#utility.yul\":5312:5365   */\n      tag_79\n      jump\t// in\n    tag_166:\n        /* \"#utility.yul\":5302:5365   */\n      swap4\n      pop\n        /* \"#utility.yul\":5258:5375   */\n      pop\n        /* \"#utility.yul\":5442:5444   */\n      0x20\n        /* \"#utility.yul\":5431:5440   */\n      dup5\n        /* \"#utility.yul\":5427:5445   */\n      add\n        /* \"#utility.yul\":5414:5446   */\n      calldataload\n        /* \"#utility.yul\":5473:5491   */\n      0xffffffffffffffff\n        /* \"#utility.yul\":5465:5471   */\n      dup2\n        /* \"#utility.yul\":5462:5492   */\n      gt\n        /* \"#utility.yul\":5459:5576   */\n      iszero\n      tag_167\n      jumpi\n        /* \"#utility.yul\":5495:5574   */\n      tag_168\n      tag_76\n      jump\t// in\n    tag_168:\n        /* \"#utility.yul\":5459:5576   */\n    tag_167:\n        /* \"#utility.yul\":5608:5673   */\n      tag_169\n        /* \"#utility.yul\":5665:5672   */\n      dup7\n        /* \"#utility.yul\":5656:5662   */\n      dup3\n        /* \"#utility.yul\":5645:5654   */\n      dup8\n        /* \"#utility.yul\":5641:5663   */\n      add\n        /* \"#utility.yul\":5608:5673   */\n      tag_90\n      jump\t// in\n    tag_169:\n        /* \"#utility.yul\":5590:5673   */\n      swap3\n      pop\n      swap3\n      pop\n        /* \"#utility.yul\":5385:5683   */\n      pop\n        /* \"#utility.yul\":5016:5690   */\n      swap3\n      pop\n      swap3\n      pop\n      swap3\n      jump\t// out\n        /* \"#utility.yul\":5696:5876   */\n    tag_38:\n        /* \"#utility.yul\":5744:5821   */\n      0x4e487b7100000000000000000000000000000000000000000000000000000000\n        /* \"#utility.yul\":5741:5742   */\n      0x00\n        /* \"#utility.yul\":5734:5822   */\n      mstore\n        /* \"#utility.yul\":5841:5845   */\n      0x32\n        /* \"#utility.yul\":5838:5839   */\n      0x04\n        /* \"#utility.yul\":5831:5846   */\n      mstore\n        /* \"#utility.yul\":5865:5869   */\n      0x24\n        /* \"#utility.yul\":5862:5863   */\n      0x00\n        /* \"#utility.yul\":5855:5870   */\n      revert\n        /* \"#utility.yul\":5882:6062   */\n    tag_92:\n        /* \"#utility.yul\":5930:6007   */\n      0x4e487b7100000000000000000000000000000000000000000000000000000000\n        /* \"#utility.yul\":5927:5928   */\n      0x00\n        /* \"#utility.yul\":5920:6008   */\n      mstore\n        /* \"#utility.yul\":6027:6031   */\n      0x22\n        /* \"#utility.yul\":6024:6025   */\n      0x04\n        /* \"#utility.yul\":6017:6032   */\n      mstore\n        /* \"#utility.yul\":6051:6055   */\n      0x24\n        /* \"#utility.yul\":6048:6049   */\n      0x00\n        /* \"#utility.yul\":6041:6056   */\n      revert\n        /* \"#utility.yul\":6068:6388   */\n    tag_45:\n        /* \"#utility.yul\":6112:6118   */\n      0x00\n        /* \"#utility.yul\":6149:6150   */\n      0x02\n        /* \"#utility.yul\":6143:6147   */\n      dup3\n        /* \"#utility.yul\":6139:6151   */\n      div\n        /* \"#utility.yul\":6129:6151   */\n      swap1\n      pop\n        /* \"#utility.yul\":6196:6197   */\n      0x01\n        /* \"#utility.yul\":6190:6194   */\n      dup3\n        /* \"#utility.yul\":6186:6198   */\n      and\n        /* \"#utility.yul\":6217:6235   */\n      dup1\n        /* \"#utility.yul\":6207:6288   */\n      tag_173\n      jumpi\n        /* \"#utility.yul\":6273:6277   */\n      0x7f\n        /* \"#utility.yul\":6265:6271   */\n      dup3\n        /* \"#utility.yul\":6261:6278   */\n      and\n        /* \"#utility.yul\":6251:6278   */\n      swap2\n      pop\n        /* \"#utility.yul\":6207:6288   */\n    tag_173:\n        /* \"#utility.yul\":6335:6337   */\n      0x20\n        /* \"#utility.yul\":6327:6333   */\n      dup3\n        /* \"#utility.yul\":6324:6338   */\n      lt\n        /* \"#utility.yul\":6304:6322   */\n      dup2\n        /* \"#utility.yul\":6301:6339   */\n      sub\n        /* \"#utility.yul\":6298:6382   */\n      tag_174\n      jumpi\n        /* \"#utility.yul\":6354:6372   */\n      tag_175\n      tag_92\n      jump\t// in\n    tag_175:\n        /* \"#utility.yul\":6298:6382   */\n    tag_174:\n        /* \"#utility.yul\":6119:6388   */\n      pop\n        /* \"#utility.yul\":6068:6388   */\n      swap2\n      swap1\n      pop\n      jump\t// out\n        /* \"#utility.yul\":6394:6574   */\n    tag_93:\n        /* \"#utility.yul\":6442:6519   */\n      0x4e487b7100000000000000000000000000000000000000000000000000000000\n        /* \"#utility.yul\":6439:6440   */\n      0x00\n        /* \"#utility.yul\":6432:6520   */\n      mstore\n        /* \"#utility.yul\":6539:6543   */\n      0x41\n        /* \"#utility.yul\":6536:6537   */\n      0x04\n        /* \"#utility.yul\":6529:6544   */\n      mstore\n        /* \"#utility.yul\":6563:6567   */\n      0x24\n        /* \"#utility.yul\":6560:6561   */\n      0x00\n        /* \"#utility.yul\":6553:6568   */\n      revert\n        /* \"#utility.yul\":6580:6721   */\n    tag_94:\n        /* \"#utility.yul\":6629:6633   */\n      0x00\n        /* \"#utility.yul\":6652:6655   */\n      dup2\n        /* \"#utility.yul\":6644:6655   */\n      swap1\n      pop\n        /* \"#utility.yul\":6675:6678   */\n      dup2\n        /* \"#utility.yul\":6672:6673   */\n      0x00\n        /* \"#utility.yul\":6665:6679   */\n      mstore\n        /* \"#utility.yul\":6709:6713   */\n      0x20\n        /* \"#utility.yul\":6706:6707   */\n      0x00\n        /* \"#utility.yul\":6696:6714   */\n      keccak256\n        /* \"#utility.yul\":6688:6714   */\n      swap1\n      pop\n        /* \"#utility.yul\":6580:6721   */\n      swap2\n      swap1\n      pop\n      jump\t// out\n        /* \"#utility.yul\":6727:6820   */\n    tag_95:\n        /* \"#utility.yul\":6764:6770   */\n      0x00\n        /* \"#utility.yul\":6811:6813   */\n      0x20\n        /* \"#utility.yul\":6806:6808   */\n      0x1f\n        /* \"#utility.yul\":6799:6804   */\n      dup4\n        /* \"#utility.yul\":6795:6809   */\n      add\n        /* \"#utility.yul\":6791:6814   */\n      div\n        /* \"#utility.yul\":6781:6814   */\n      swap1\n      pop\n        /* \"#utility.yul\":6727:6820   */\n      swap2\n      swap1\n      pop\n      jump\t// out\n        /* \"#utility.yul\":6826:6933   */\n    tag_96:\n        /* \"#utility.yul\":6870:6878   */\n      0x00\n        /* \"#utility.yul\":6920:6925   */\n      dup3\n        /* \"#utility.yul\":6914:6918   */\n      dup3\n        /* \"#utility.yul\":6910:6926   */\n      shl\n        /* \"#utility.yul\":6889:6926   */\n      swap1\n      pop\n        /* \"#utility.yul\":6826:6933   */\n      swap3\n      swap2\n      pop\n      pop\n      jump\t// out\n        /* \"#utility.yul\":6939:7332   */\n    tag_97:\n        /* \"#utility.yul\":7008:7014   */\n      0x00\n        /* \"#utility.yul\":7058:7059   */\n      0x08\n        /* \"#utility.yul\":7046:7056   */\n      dup4\n        /* \"#utility.yul\":7042:7060   */\n      mul\n        /* \"#utility.yul\":7081:7178   */\n      tag_181\n        /* \"#utility.yul\":7111:7177   */\n      0xffffffffffffffffffffffffffffffffffffffffffffffffffffffffffffffff\n        /* \"#utility.yul\":7100:7109   */\n      dup3\n        /* \"#utility.yul\":7081:7178   */\n      tag_96\n      jump\t// in\n    tag_181:\n        /* \"#utility.yul\":7199:7238   */\n      tag_182\n        /* \"#utility.yul\":7229:7237   */\n      dup7\n        /* \"#utility.yul\":7218:7227   */\n      dup4\n        /* \"#utility.yul\":7199:7238   */\n      tag_96\n      jump\t// in\n    tag_182:\n        /* \"#utility.yul\":7187:7238   */\n      swap6\n      pop\n        /* \"#utility.yul\":7271:7275   */\n      dup1\n        /* \"#utility.yul\":7267:7276   */\n      not\n        /* \"#utility.yul\":7260:7265   */\n      dup5\n        /* \"#utility.yul\":7256:7277   */\n      and\n        /* \"#utility.yul\":7247:7277   */\n      swap4\n      pop\n        /* \"#utility.yul\":7320:7324   */\n      dup1\n        /* \"#utility.yul\":7310:7318   */\n      dup7\n        /* \"#utility.yul\":7306:7325   */\n      and\n        /* \"#utility.yul\":7299:7304   */\n      dup5\n        /* \"#utility.yul\":7296:7326   */\n      or\n        /* \"#utility.yul\":7286:7326   */\n      swap3\n      pop\n        /* \"#utility.yul\":7015:7332   */\n      pop\n      pop\n        /* \"#utility.yul\":6939:7332   */\n      swap4\n      swap3\n      pop\n      pop\n      pop\n      jump\t// out\n        /* \"#utility.yul\":7338:7398   */\n    tag_98:\n        /* \"#utility.yul\":7366:7369   */\n      0x00\n        /* \"#utility.yul\":7387:7392   */\n      dup2\n        /* \"#utility.yul\":7380:7392   */\n      swap1\n      pop\n        /* \"#utility.yul\":7338:7398   */\n      swap2\n      swap1\n      pop\n      jump\t// out\n        /* \"#utility.yul\":7404:7546   */\n    tag_99:\n        /* \"#utility.yul\":7454:7463   */\n      0x00\n        /* \"#utility.yul\":7487:7540   */\n      tag_185\n        /* \"#utility.yul\":7505:7539   */\n      tag_186\n        /* \"#utility.yul\":7514:7538   */\n      tag_187\n        /* \"#utility.yul\":7532:7537   */\n      dup5\n        /* \"#utility.yul\":7514:7538   */\n      tag_77\n      jump\t// in\n    tag_187:\n        /* \"#utility.yul\":7505:7539   */\n      tag_98\n      jump\t// in\n    tag_186:\n        /* \"#utility.yul\":7487:7540   */\n      tag_77\n      jump\t// in\n    tag_185:\n        /* \"#utility.yul\":7474:7540   */\n      swap1\n      pop\n        /* \"#utility.yul\":7404:7546   */\n      swap2\n      swap1\n      pop\n      jump\t// out\n        /* \"#utility.yul\":7552:7627   */\n    tag_100:\n        /* \"#utility.yul\":7595:7598   */\n      0x00\n        /* \"#utility.yul\":7616:7621   */\n      dup2\n        /* \"#utility.yul\":7609:7621   */\n      swap1\n      pop\n        /* \"#utility.yul\":7552:7627   */\n      swap2\n      swap1\n      pop\n      jump\t// out\n        /* \"#utility.yul\":7633:7902   */\n    tag_101:\n        /* \"#utility.yul\":7743:7782   */\n      tag_190\n        /* \"#utility.yul\":7774:7781   */\n      dup4\n        /* \"#utility.yul\":7743:7782   */\n      tag_99\n      jump\t// in\n    tag_190:\n        /* \"#utility.yul\":7804:7895   */\n      tag_191\n        /* \"#utility.yul\":7853:7894   */\n      tag_192\n        /* \"#utility.yul\":7877:7893   */\n      dup3\n        /* \"#utility.yul\":7853:7894   */\n      tag_100\n      jump\t// in\n    tag_192:\n        /* \"#utility.yul\":7845:7851   */\n      dup5\n        /* \"#utility.yul\":7838:7842   */\n      dup5\n        /* \"#utility.yul\":7832:7843   */\n      sload\n        /* \"#utility.yul\":7804:7895   */\n      tag_97\n      jump\t// in\n    tag_191:\n        /* \"#utility.yul\":7798:7802   */\n      dup3\n        /* \"#utility.yul\":7791:7896   */\n      sstore\n        /* \"#utility.yul\":7709:7902   */\n      pop\n        /* \"#utility.yul\":7633:7902   */\n      pop\n      pop\n      pop\n      jump\t// out\n        /* \"#utility.yul\":7908:7981   */\n    tag_102:\n        /* \"#utility.yul\":7953:7956   */\n      0x00\n        /* \"#utility.yul\":7908:7981   */\n      swap1\n      jump\t// out\n        /* \"#utility.yul\":7987:8176   */\n    tag_103:\n        /* \"#utility.yul\":8064:8096   */\n      tag_195\n      tag_102\n      jump\t// in\n    tag_195:\n        /* \"#utility.yul\":8105:8170   */\n      tag_196\n        /* \"#utility.yul\":8163:8169   */\n      dup2\n        /* \"#utility.yul\":8155:8161   */\n      dup5\n        /* \"#utility.yul\":8149:8153   */\n      dup5\n        /* \"#utility.yul\":8105:8170   */\n      tag_101\n      jump\t// in\n    tag_196:\n        /* \"#utility.yul\":8040:8176   */\n      pop\n        /* \"#utility.yul\":7987:8176   */\n      pop\n      pop\n      jump\t// out\n        /* \"#utility.yul\":8182:8368   */\n    tag_104:\n        /* \"#utility.yul\":8242:8362   */\n    tag_198:\n        /* \"#utility.yul\":8259:8262   */\n      dup2\n        /* \"#utility.yul\":8252:8257   */\n      dup2\n        /* \"#utility.yul\":8249:8263   */\n      lt\n        /* \"#utility.yul\":8242:8362   */\n      iszero\n      tag_200\n      jumpi\n        /* \"#utility.yul\":8313:8352   */\n      tag_201\n        /* \"#utility.yul\":8350:8351   */\n      0x00\n        /* \"#utility.yul\":8343:8348   */\n      dup3\n        /* \"#utility.yul\":8313:8352   */\n      tag_103\n      jump\t// in\n    tag_201:\n        /* \"#utility.yul\":8286:8287   */\n      0x01\n        /* \"#utility.yul\":8279:8284   */\n      dup2\n        /* \"#utility.yul\":8275:8288   */\n      add\n        /* \"#utility.yul\":8266:8288   */\n      swap1\n      pop\n        /* \"#utility.yul\":8242:8362   */\n      jump(tag_198)\n    tag_200:\n        /* \"#utility.yul\":8182:8368   */\n      pop\n      pop\n      jump\t// out\n        /* \"#utility.yul\":8374:8917   */\n    tag_105:\n        /* \"#utility.yul\":8475:8477   */\n      0x1f\n        /* \"#utility.yul\":8470:8473   */\n      dup3\n        /* \"#utility.yul\":8467:8478   */\n      gt\n        /* \"#utility.yul\":8464:8910   */\n      iszero\n      tag_203\n      jumpi\n        /* \"#utility.yul\":8509:8547   */\n      tag_204\n        /* \"#utility.yul\":8541:8546   */\n      dup2\n        /* \"#utility.yul\":8509:8547   */\n      tag_94\n      jump\t// in\n    tag_204:\n        /* \"#utility.yul\":8593:8622   */\n      tag_205\n        /* \"#utility.yul\":8611:8621   */\n      dup5\n        /* \"#utility.yul\":8593:8622   */\n      tag_95\n      jump\t// in\n    tag_205:\n        /* \"#utility.yul\":8583:8591   */\n      dup2\n        /* \"#utility.yul\":8579:8623   */\n      add\n        /* \"#utility.yul\":8776:8778   */\n      0x20\n        /* \"#utility.yul\":8764:8774   */\n      dup6\n        /* \"#utility.yul\":8761:8779   */\n      lt\n        /* \"#utility.yul\":8758:8807   */\n      iszero\n      tag_206\n      jumpi\n        /* \"#utility.yul\":8797:8805   */\n      dup2\n        /* \"#utility.yul\":8782:8805   */\n      swap1\n      pop\n        /* \"#utility.yul\":8758:8807   */\n    tag_206:\n        /* \"#utility.yul\":8820:8900   */\n      tag_207\n        /* \"#utility.yul\":8876:8898   */\n      tag_208\n        /* \"#utility.yul\":8894:8897   */\n      dup6\n        /* \"#utility.yul\":8876:8898   */\n      tag_95\n      jump\t// in\n    tag_208:\n        /* \"#utility.yul\":8866:8874   */\n      dup4\n        /* \"#utility.yul\":8862:8899   */\n      add\n        /* \"#utility.yul\":8849:8860   */\n      dup3\n        /* \"#utility.yul\":8820:8900   */\n      tag_104\n      jump\t// in\n    tag_207:\n        /* \"#utility.yul\":8479:8910   */\n      pop\n      pop\n        /* \"#utility.yul\":8464:8910   */\n    tag_203:\n        /* \"#utility.yul\":8374:8917   */\n      pop\n      pop\n      pop\n      jump\t// out\n        /* \"#utility.yul\":8923:9040   */\n    tag_106:\n        /* \"#utility.yul\":8977:8985   */\n      0x00\n        /* \"#utility.yul\":9027:9032   */\n      dup3\n        /* \"#utility.yul\":9021:9025   */\n      dup3\n        /* \"#utility.yul\":9017:9033   */\n      shr\n        /* \"#utility.yul\":8996:9033   */\n      swap1\n      pop\n        /* \"#utility.yul\":8923:9040   */\n      swap3\n      swap2\n      pop\n      pop\n      jump\t// out\n        /* \"#utility.yul\":9046:9215   */\n    tag_107:\n        /* \"#utility.yul\":9090:9096   */\n      0x00\n        /* \"#utility.yul\":9123:9174   */\n      tag_211\n        /* \"#utility.yul\":9171:9172   */\n      0x00\n        /* \"#utility.yul\":9167:9173   */\n      not\n        /* \"#utility.yul\":9159:9164   */\n      dup5\n        /* \"#utility.yul\":9156:9157   */\n      0x08\n        /* \"#utility.yul\":9152:9165   */\n      mul\n        /* \"#utility.yul\":9123:9174   */\n      tag_106\n      jump\t// in\n    tag_211:\n        /* \"#utility.yul\":9119:9175   */\n      not\n        /* \"#utility.yul\":9204:9208   */\n      dup1\n        /* \"#utility.yul\":9198:9202   */\n      dup4\n        /* \"#utility.yul\":9194:9209   */\n      and\n        /* \"#utility.yul\":9184:9209   */\n      swap2\n      pop\n        /* \"#utility.yul\":9097:9215   */\n      pop\n        /* \"#utility.yul\":9046:9215   */\n      swap3\n      swap2\n      pop\n      pop\n      jump\t// out\n        /* \"#utility.yul\":9220:9515   */\n    tag_108:\n        /* \"#utility.yul\":9296:9300   */\n      0x00\n        /* \"#utility.yul\":9442:9471   */\n      tag_213\n        /* \"#utility.yul\":9467:9470   */\n      dup4\n        /* \"#utility.yul\":9461:9465   */\n      dup4\n        /* \"#utility.yul\":9442:9471   */\n      tag_107\n      jump\t// in\n    tag_213:\n        /* \"#utility.yul\":9434:9471   */\n      swap2\n      pop\n        /* \"#utility.yul\":9504:9507   */\n      dup3\n        /* \"#utility.yul\":9501:9502   */\n      0x02\n        /* \"#utility.yul\":9497:9508   */\n      mul\n        /* \"#utility.yul\":9491:9495   */\n      dup3\n        /* \"#utility.yul\":9488:9509   */\n      or\n        /* \"#utility.yul\":9480:9509   */\n      swap1\n      pop\n        /* \"#utility.yul\":9220:9515   */\n      swap3\n      swap2\n      pop\n      pop\n      jump\t// out\n        /* \"#utility.yul\":9520:10915   */\n    tag_53:\n        /* \"#utility.yul\":9637:9674   */\n      tag_215\n        /* \"#utility.yul\":9670:9673   */\n      dup3\n        /* \"#utility.yul\":9637:9674   */\n      tag_80\n      jump\t// in\n    tag_215:\n        /* \"#utility.yul\":9739:9757   */\n      0xffffffffffffffff\n        /* \"#utility.yul\":9731:9737   */\n      dup2\n        /* \"#utility.yul\":9728:9758   */\n      gt\n        /* \"#utility.yul\":9725:9781   */\n      iszero\n      tag_216\n      jumpi\n        /* \"#utility.yul\":9761:9779   */\n      tag_217\n      tag_93\n      jump\t// in\n    tag_217:\n        /* \"#utility.yul\":9725:9781   */\n    tag_216:\n        /* \"#utility.yul\":9805:9843   */\n      tag_218\n        /* \"#utility.yul\":9837:9841   */\n      dup3\n        /* \"#utility.yul\":9831:9842   */\n      sload\n        /* \"#utility.yul\":9805:9843   */\n      tag_45\n      jump\t// in\n    tag_218:\n        /* \"#utility.yul\":9890:9957   */\n      tag_219\n        /* \"#utility.yul\":9950:9956   */\n      dup3\n        /* \"#utility.yul\":9942:9948   */\n      dup3\n        /* \"#utility.yul\":9936:9940   */\n      dup6\n        /* \"#utility.yul\":9890:9957   */\n      tag_105\n      jump\t// in\n    tag_219:\n        /* \"#utility.yul\":9984:9985   */\n      0x00\n        /* \"#utility.yul\":10008:10012   */\n      0x20\n        /* \"#utility.yul\":9995:10012   */\n      swap1\n      pop\n        /* \"#utility.yul\":10040:10042   */\n      0x1f\n        /* \"#utility.yul\":10032:10038   */\n      dup4\n        /* \"#utility.yul\":10029:10043   */\n      gt\n        /* \"#utility.yul\":10057:10058   */\n      0x01\n        /* \"#utility.yul\":10052:10670   */\n      dup2\n      eq\n      tag_221\n      jumpi\n        /* \"#utility.yul\":10714:10715   */\n      0x00\n        /* \"#utility.yul\":10731:10737   */\n      dup5\n        /* \"#utility.yul\":10728:10805   */\n      iszero\n      tag_222\n      jumpi\n        /* \"#utility.yul\":10780:10789   */\n      dup3\n        /* \"#utility.yul\":10775:10778   */\n      dup8\n        /* \"#utility.yul\":10771:10790   */\n      add\n        /* \"#utility.yul\":10765:10791   */\n      mload\n        /* \"#utility.yul\":10756:10791   */\n      swap1\n      pop\n        /* \"#utility.yul\":10728:10805   */\n    tag_222:\n        /* \"#utility.yul\":10831:10898   */\n      tag_223\n        /* \"#utility.yul\":10891:10897   */\n      dup6\n        /* \"#utility.yul\":10884:10889   */\n      dup3\n        /* \"#utility.yul\":10831:10898   */\n      tag_108\n      jump\t// in\n    tag_223:\n        /* \"#utility.yul\":10825:10829   */\n      dup7\n        /* \"#utility.yul\":10818:10899   */\n      sstore\n        /* \"#utility.yul\":10687:10909   */\n      pop\n        /* \"#utility.yul\":10022:10909   */\n      jump(tag_220)\n        /* \"#utility.yul\":10052:10670   */\n    tag_221:\n        /* \"#utility.yul\":10104:10108   */\n      0x1f\n        /* \"#utility.yul\":10100:10109   */\n      not\n        /* \"#utility.yul\":10092:10098   */\n      dup5\n        /* \"#utility.yul\":10088:10110   */\n      and\n        /* \"#utility.yul\":10138:10175   */\n      tag_224\n        /* \"#utility.yul\":10170:10174   */\n      dup7\n        /* \"#utility.yul\":10138:10175   */\n      tag_94\n      jump\t// in\n    tag_224:\n        /* \"#utility.yul\":10197:10198   */\n      0x00\n        /* \"#utility.yul\":10211:10419   */\n    tag_225:\n        /* \"#utility.yul\":10225:10232   */\n      dup3\n        /* \"#utility.yul\":10222:10223   */\n      dup2\n        /* \"#utility.yul\":10219:10233   */\n      lt\n        /* \"#utility.yul\":10211:10419   */\n      iszero\n      tag_227\n      jumpi\n        /* \"#utility.yul\":10304:10313   */\n      dup5\n        /* \"#utility.yul\":10299:10302   */\n      dup10\n        /* \"#utility.yul\":10295:10314   */\n      add\n        /* \"#utility.yul\":10289:10315   */\n      mload\n        /* \"#utility.yul\":10281:10287   */\n      dup3\n        /* \"#utility.yul\":10274:10316   */\n      sstore\n        /* \"#utility.yul\":10355:10356   */\n      0x01\n        /* \"#utility.yul\":10347:10353   */\n      dup3\n        /* \"#utility.yul\":10343:10357   */\n      add\n        /* \"#utility.yul\":10333:10357   */\n      swap2\n      pop\n        /* \"#utility.yul\":10402:10404   */\n      0x20\n        /* \"#utility.yul\":10391:10400   */\n      dup6\n        /* \"#utility.yul\":10387:10405   */\n      add\n        /* \"#utility.yul\":10374:10405   */\n      swap5\n      pop\n        /* \"#utility.yul\":10248:10252   */\n      0x20\n        /* \"#utility.yul\":10245:10246   */\n      dup2\n        /* \"#utility.yul\":10241:10253   */\n      add\n        /* \"#utility.yul\":10236:10253   */\n      swap1\n      pop\n        /* \"#utility.yul\":10211:10419   */\n      jump(tag_225)\n    tag_227:\n        /* \"#utility.yul\":10447:10453   */\n      dup7\n        /* \"#utility.yul\":10438:10445   */\n      dup4\n        /* \"#utility.yul\":10435:10454   */\n      lt\n        /* \"#utility.yul\":10432:10611   */\n      iszero\n      tag_228\n      jumpi\n        /* \"#utility.yul\":10505:10514   */\n      dup5\n        /* \"#utility.yul\":10500:10503   */\n      dup10\n        /* \"#utility.yul\":10496:10515   */\n      add\n        /* \"#utility.yul\":10490:10516   */\n      mload\n        /* \"#utility.yul\":10548:10596   */\n      tag_229\n        /* \"#utility.yul\":10590:10594   */\n      0x1f\n        /* \"#utility.yul\":10582:10588   */\n      dup10\n        /* \"#utility.yul\":10578:10595   */\n      and\n        /* \"#utility.yul\":10567:10576   */\n      dup3\n        /* \"#utility.yul\":10548:10596   */\n      tag_107\n      jump\t// in\n    tag_229:\n        /* \"#utility.yul\":10540:10546   */\n      dup4\n        /* \"#utility.yul\":10533:10597   */\n      sstore\n        /* \"#utility.yul\":10455:10611   */\n      pop\n        /* \"#utility.yul\":10432:10611   */\n    tag_228:\n        /* \"#utility.yul\":10657:10658   */\n      0x01\n        /* \"#utility.yul\":10653:10654   */\n      0x02\n        /* \"#utility.yul\":10645:10651   */\n      dup9\n        /* \"#utility.yul\":10641:10655   */\n      mul\n        /* \"#utility.yul\":10637:10659   */\n      add\n        /* \"#utility.yul\":10631:10635   */\n      dup9\n        /* \"#utility.yul\":10624:10660   */\n      sstore\n        /* \"#utility.yul\":10059:10670   */\n      pop\n      pop\n      pop\n        /* \"#utility.yul\":10022:10909   */\n    tag_220:\n      pop\n        /* \"#utility.yul\":9612:10915   */\n      pop\n      pop\n      pop\n        /* \"#utility.yul\":9520:10915   */\n      pop\n      pop\n      jump\t// out\n        /* \"#utility.yul\":10921:11018   */\n    tag_109:\n        /* \"#utility.yul\":10980:10986   */\n      0x00\n        /* \"#utility.yul\":11008:11011   */\n      dup3\n        /* \"#utility.yul\":10998:11011   */\n      swap1\n      pop\n        /* \"#utility.yul\":10921:11018   */\n      swap3\n      swap2\n      pop\n      pop\n      jump\t// out\n        /* \"#utility.yul\":11024:12427   */\n    tag_73:\n        /* \"#utility.yul\":11148:11192   */\n      tag_232\n        /* \"#utility.yul\":11188:11191   */\n      dup4\n        /* \"#utility.yul\":11183:11186   */\n      dup4\n        /* \"#utility.yul\":11148:11192   */\n      tag_109\n      jump\t// in\n    tag_232:\n        /* \"#utility.yul\":11257:11275   */\n      0xffffffffffffffff\n        /* \"#utility.yul\":11249:11255   */\n      dup2\n        /* \"#utility.yul\":11246:11276   */\n      gt\n        /* \"#utility.yul\":11243:11299   */\n      iszero\n      tag_233\n      jumpi\n        /* \"#utility.yul\":11279:11297   */\n      tag_234\n      tag_93\n      jump\t// in\n    tag_234:\n        /* \"#utility.yul\":11243:11299   */\n    tag_233:\n        /* \"#utility.yul\":11323:11361   */\n      tag_235\n        /* \"#utility.yul\":11355:11359   */\n      dup3\n        /* \"#utility.yul\":11349:11360   */\n      sload\n        /* \"#utility.yul\":11323:11361   */\n      tag_45\n      jump\t// in\n    tag_235:\n        /* \"#utility.yul\":11408:11475   */\n      tag_236\n        /* \"#utility.yul\":11468:11474   */\n      dup3\n        /* \"#utility.yul\":11460:11466   */\n      dup3\n        /* \"#utility.yul\":11454:11458   */\n      dup6\n        /* \"#utility.yul\":11408:11475   */\n      tag_105\n      jump\t// in\n    tag_236:\n        /* \"#utility.yul\":11502:11503   */\n      0x00\n        /* \"#utility.yul\":11531:11533   */\n      0x1f\n        /* \"#utility.yul\":11523:11529   */\n      dup4\n        /* \"#utility.yul\":11520:11534   */\n      gt\n        /* \"#utility.yul\":11548:11549   */\n      0x01\n        /* \"#utility.yul\":11543:12175   */\n      dup2\n      eq\n      tag_238\n      jumpi\n        /* \"#utility.yul\":12219:12220   */\n      0x00\n        /* \"#utility.yul\":12236:12242   */\n      dup5\n        /* \"#utility.yul\":12233:12317   */\n      iszero\n      tag_239\n      jumpi\n        /* \"#utility.yul\":12292:12301   */\n      dup3\n        /* \"#utility.yul\":12287:12290   */\n      dup8\n        /* \"#utility.yul\":12283:12302   */\n      add\n        /* \"#utility.yul\":12270:12303   */\n      calldataload\n        /* \"#utility.yul\":12261:12303   */\n      swap1\n      pop\n        /* \"#utility.yul\":12233:12317   */\n    tag_239:\n        /* \"#utility.yul\":12343:12410   */\n      tag_240\n        /* \"#utility.yul\":12403:12409   */\n      dup6\n        /* \"#utility.yul\":12396:12401   */\n      dup3\n        /* \"#utility.yul\":12343:12410   */\n      tag_108\n      jump\t// in\n    tag_240:\n        /* \"#utility.yul\":12337:12341   */\n      dup7\n        /* \"#utility.yul\":12330:12411   */\n      sstore\n        /* \"#utility.yul\":12192:12421   */\n      pop\n        /* \"#utility.yul\":11513:12421   */\n      jump(tag_237)\n        /* \"#utility.yul\":11543:12175   */\n    tag_238:\n        /* \"#utility.yul\":11595:11599   */\n      0x1f\n        /* \"#utility.yul\":11591:11600   */\n      not\n        /* \"#utility.yul\":11583:11589   */\n      dup5\n        /* \"#utility.yul\":11579:11601   */\n      and\n        /* \"#utility.yul\":11629:11666   */\n      tag_241\n        /* \"#utility.yul\":11661:11665   */\n      dup7\n        /* \"#utility.yul\":11629:11666   */\n      tag_94\n      jump\t// in\n    tag_241:\n        /* \"#utility.yul\":11688:11689   */\n      0x00\n        /* \"#utility.yul\":11702:11917   */\n    tag_242:\n        /* \"#utility.yul\":11716:11723   */\n      dup3\n        /* \"#utility.yul\":11713:11714   */\n      dup2\n        /* \"#utility.yul\":11710:11724   */\n      lt\n        /* \"#utility.yul\":11702:11917   */\n      iszero\n      tag_244\n      jumpi\n        /* \"#utility.yul\":11802:11811   */\n      dup5\n        /* \"#utility.yul\":11797:11800   */\n      dup10\n        /* \"#utility.yul\":11793:11812   */\n      add\n        /* \"#utility.yul\":11780:11813   */\n      calldataload\n        /* \"#utility.yul\":11772:11778   */\n      dup3\n        /* \"#utility.yul\":11765:11814   */\n      sstore\n        /* \"#utility.yul\":11853:11854   */\n      0x01\n        /* \"#utility.yul\":11845:11851   */\n      dup3\n        /* \"#utility.yul\":11841:11855   */\n      add\n        /* \"#utility.yul\":11831:11855   */\n      swap2\n      pop\n        /* \"#utility.yul\":11900:11902   */\n      0x20\n        /* \"#utility.yul\":11889:11898   */\n      dup6\n        /* \"#utility.yul\":11885:11903   */\n      add\n        /* \"#utility.yul\":11872:11903   */\n      swap5\n      pop\n        /* \"#utility.yul\":11739:11743   */\n      0x20\n        /* \"#utility.yul\":11736:11737   */\n      dup2\n        /* \"#utility.yul\":11732:11744   */\n      add\n        /* \"#utility.yul\":11727:11744   */\n      swap1\n      pop\n        /* \"#utility.yul\":11702:11917   */\n      jump(tag_242)\n    tag_244:\n        /* \"#utility.yul\":11945:11951   */\n      dup7\n        /* \"#utility.yul\":11936:11943   */\n      dup4\n        /* \"#utility.yul\":11933:11952   */\n      lt\n        /* \"#utility.yul\":11930:12116   */\n      iszero\n      tag_245\n      jumpi\n        /* \"#utility.yul\":12010:12019   */\n      dup5\n        /* \"#utility.yul\":12005:12008   */\n      dup10\n        /* \"#utility.yul\":12001:12020   */\n      add\n        /* \"#utility.yul\":11988:12021   */\n      calldataload\n        /* \"#utility.yul\":12053:12101   */\n      tag_246\n        /* \"#utility.yul\":12095:12099   */\n      0x1f\n        /* \"#utility.yul\":12087:12093   */\n      dup10\n        /* \"#utility.yul\":12083:12100   */\n      and\n        /* \"#utility.yul\":12072:12081   */\n      dup3\n        /* \"#utility.yul\":12053:12101   */\n      tag_107\n      jump\t// in\n    tag_246:\n        /* \"#utility.yul\":12045:12051   */\n      dup4\n        /* \"#utility.yul\":12038:12102   */\n      sstore\n        /* \"#utility.yul\":11953:12116   */\n      pop\n        /* \"#utility.yul\":11930:12116   */\n    tag_245:\n        /* \"#utility.yul\":12162:12163   */\n      0x01\n        /* \"#utility.yul\":12158:12159   */\n      0x02\n        /* \"#utility.yul\":12150:12156   */\n      dup9\n        /* \"#utility.yul\":12146:12160   */\n      mul\n        /* \"#utility.yul\":12142:12164   */\n      add\n        /* \"#utility.yul\":12136:12140   */\n      dup9\n        /* \"#utility.yul\":12129:12165   */\n      sstore\n        /* \"#utility.yul\":11550:12175   */\n      pop\n      pop\n      pop\n        /* \"#utility.yul\":11513:12421   */\n    tag_237:\n      pop\n        /* \"#utility.yul\":11123:12427   */\n      pop\n      pop\n      pop\n        /* \"#utility.yul\":11024:12427   */\n      pop\n      pop\n      pop\n      jump\t// out\n\n    auxdata: 0xa264697066735822122090cd834962b435e06a0ce1ce2c0e55d0d34898ea7883028187546e59919c6bfa64736f6c634300081a0033\n}\n",
				"bytecode": {
					"linkReferences": {},
					"object": "6080604052348015600e575f80fd5b50610c988061001c5f395ff3fe608060405234801561000f575f80fd5b5060043610610060575f3560e01c8063455f5024146100645780639507d39a14610080578063b6a46b3b146100b2578063bc8bc2b4146100ce578063be1c766b146100ff578063cd1116141461011d575b5f80fd5b61007e60048036038101906100799190610611565b610139565b005b61009a60048036038101906100959190610611565b61018b565b6040516100a9939291906106c6565b60405180910390f35b6100cc60048036038101906100c7919061076a565b610294565b005b6100e860048036038101906100e39190610611565b6104b5565b6040516100f69291906107b5565b60405180910390f35b610107610575565b60405161011491906107f2565b60405180910390f35b6101376004803603810190610132919061080b565b610580565b005b5f80828154811061014d5761014c610868565b5b905f5260205f2090600202019050806001015f9054906101000a900460ff1615816001015f6101000a81548160ff0219169083151502179055505050565b60605f60605f8085815481106101a4576101a3610868565b5b905f5260205f2090600202019050805f01816001015f9054906101000a900460ff168180546101d2906108c2565b80601f01602080910402602001604051908101604052809291908181526020018280546101fe906108c2565b80156102495780601f1061022057610100808354040283529160200191610249565b820191905f5260205f20905b81548152906001019060200180831161022c57829003601f168201915b505050505091506040518060400160405280600a81526020017f6578747261207465787400000000000000000000000000000000000000000000815250935093509350509193909250565b5f604051806040016040528084848080601f0160208091040260200160405190810160405280939291908181526020018383808284375f81840152601f19601f8201169050808301925050505050505081526020015f1515815250908060018154018082558091505060019003905f5260205f2090600202015f909190919091505f820151815f0190816103289190610abc565b506020820151816001015f6101000a81548160ff02191690831515021790555050505f604051806040016040528084848080601f0160208091040260200160405190810160405280939291908181526020018383808284375f81840152601f19601f8201169050808301925050505050505081526020015f1515815250908060018154018082558091505060019003905f5260205f2090600202015f909190919091505f820151815f0190816103de9190610abc565b506020820151816001015f6101000a81548160ff02191690831515021790555050506104086105bb565b82828080601f0160208091040260200160405190810160405280939291908181526020018383808284375f81840152601f19601f82011690508083019250505050505050815f01819052505f81908060018154018082558091505060019003905f5260205f2090600202015f909190919091505f820151815f01908161048e9190610abc565b506020820151816001015f6101000a81548160ff0219169083151502179055505050505050565b5f81815481106104c3575f80fd5b905f5260205f2090600202015f91509050805f0180546104e2906108c2565b80601f016020809104026020016040519081016040528092919081815260200182805461050e906108c2565b80156105595780601f1061053057610100808354040283529160200191610559565b820191905f5260205f20905b81548152906001019060200180831161053c57829003601f168201915b505050505090806001015f9054906101000a900460ff16905082565b5f8080549050905090565b5f80848154811061059457610593610868565b5b905f5260205f20906002020190508282825f0191826105b4929190610b95565b5050505050565b6040518060400160405280606081526020015f151581525090565b5f80fd5b5f80fd5b5f819050919050565b6105f0816105de565b81146105fa575f80fd5b50565b5f8135905061060b816105e7565b92915050565b5f60208284031215610626576106256105d6565b5b5f610633848285016105fd565b91505092915050565b5f81519050919050565b5f82825260208201905092915050565b8281835e5f83830152505050565b5f601f19601f8301169050919050565b5f61067e8261063c565b6106888185610646565b9350610698818560208601610656565b6106a181610664565b840191505092915050565b5f8115159050919050565b6106c0816106ac565b82525050565b5f6060820190508181035f8301526106de8186610674565b90506106ed60208301856106b7565b81810360408301526106ff8184610674565b9050949350505050565b5f80fd5b5f80fd5b5f80fd5b5f8083601f84011261072a57610729610709565b5b8235905067ffffffffffffffff8111156107475761074661070d565b5b60208301915083600182028301111561076357610762610711565b5b9250929050565b5f80602083850312156107805761077f6105d6565b5b5f83013567ffffffffffffffff81111561079d5761079c6105da565b5b6107a985828601610715565b92509250509250929050565b5f6040820190508181035f8301526107cd8185610674565b90506107dc60208301846106b7565b9392505050565b6107ec816105de565b82525050565b5f6020820190506108055f8301846107e3565b92915050565b5f805f60408486031215610822576108216105d6565b5b5f61082f868287016105fd565b935050602084013567ffffffffffffffff8111156108505761084f6105da565b5b61085c86828701610715565b92509250509250925092565b7f4e487b71000000000000000000000000000000000000000000000000000000005f52603260045260245ffd5b7f4e487b71000000000000000000000000000000000000000000000000000000005f52602260045260245ffd5b5f60028204905060018216806108d957607f821691505b6020821081036108ec576108eb610895565b5b50919050565b7f4e487b71000000000000000000000000000000000000000000000000000000005f52604160045260245ffd5b5f819050815f5260205f209050919050565b5f6020601f8301049050919050565b5f82821b905092915050565b5f6008830261097b7fffffffffffffffffffffffffffffffffffffffffffffffffffffffffffffffff82610940565b6109858683610940565b95508019841693508086168417925050509392505050565b5f819050919050565b5f6109c06109bb6109b6846105de565b61099d565b6105de565b9050919050565b5f819050919050565b6109d9836109a6565b6109ed6109e5826109c7565b84845461094c565b825550505050565b5f90565b610a016109f5565b610a0c8184846109d0565b505050565b5b81811015610a2f57610a245f826109f9565b600181019050610a12565b5050565b601f821115610a7457610a458161091f565b610a4e84610931565b81016020851015610a5d578190505b610a71610a6985610931565b830182610a11565b50505b505050565b5f82821c905092915050565b5f610a945f1984600802610a79565b1980831691505092915050565b5f610aac8383610a85565b9150826002028217905092915050565b610ac58261063c565b67ffffffffffffffff811115610ade57610add6108f2565b5b610ae882546108c2565b610af3828285610a33565b5f60209050601f831160018114610b24575f8415610b12578287015190505b610b1c8582610aa1565b865550610b83565b601f198416610b328661091f565b5f5b82811015610b5957848901518255600182019150602085019450602081019050610b34565b86831015610b765784890151610b72601f891682610a85565b8355505b6001600288020188555050505b505050505050565b5f82905092915050565b610b9f8383610b8b565b67ffffffffffffffff811115610bb857610bb76108f2565b5b610bc282546108c2565b610bcd828285610a33565b5f601f831160018114610bfa575f8415610be8578287013590505b610bf28582610aa1565b865550610c59565b601f198416610c088661091f565b5f5b82811015610c2f57848901358255600182019150602085019450602081019050610c0a565b86831015610c4c5784890135610c48601f891682610a85565b8355505b6001600288020188555050505b5050505050505056fea264697066735822122090cd834962b435e06a0ce1ce2c0e55d0d34898ea7883028187546e59919c6bfa64736f6c634300081a0033",
					"opcodes": "PUSH1 0x80 PUSH1 0x40 MSTORE CALLVALUE DUP1 ISZERO PUSH1 0xE JUMPI PUSH0 DUP1 REVERT JUMPDEST POP PUSH2 0xC98 DUP1 PUSH2 0x1C PUSH0 CODECOPY PUSH0 RETURN INVALID PUSH1 0x80 PUSH1 0x40 MSTORE CALLVALUE DUP1 ISZERO PUSH2 0xF JUMPI PUSH0 DUP1 REVERT JUMPDEST POP PUSH1 0x4 CALLDATASIZE LT PUSH2 0x60 JUMPI PUSH0 CALLDATALOAD PUSH1 0xE0 SHR DUP1 PUSH4 0x455F5024 EQ PUSH2 0x64 JUMPI DUP1 PUSH4 0x9507D39A EQ PUSH2 0x80 JUMPI DUP1 PUSH4 0xB6A46B3B EQ PUSH2 0xB2 JUMPI DUP1 PUSH4 0xBC8BC2B4 EQ PUSH2 0xCE JUMPI DUP1 PUSH4 0xBE1C766B EQ PUSH2 0xFF JUMPI DUP1 PUSH4 0xCD111614 EQ PUSH2 0x11D JUMPI JUMPDEST PUSH0 DUP1 REVERT JUMPDEST PUSH2 0x7E PUSH1 0x4 DUP1 CALLDATASIZE SUB DUP2 ADD SWAP1 PUSH2 0x79 SWAP2 SWAP1 PUSH2 0x611 JUMP JUMPDEST PUSH2 0x139 JUMP JUMPDEST STOP JUMPDEST PUSH2 0x9A PUSH1 0x4 DUP1 CALLDATASIZE SUB DUP2 ADD SWAP1 PUSH2 0x95 SWAP2 SWAP1 PUSH2 0x611 JUMP JUMPDEST PUSH2 0x18B JUMP JUMPDEST PUSH1 0x40 MLOAD PUSH2 0xA9 SWAP4 SWAP3 SWAP2 SWAP1 PUSH2 0x6C6 JUMP JUMPDEST PUSH1 0x40 MLOAD DUP1 SWAP2 SUB SWAP1 RETURN JUMPDEST PUSH2 0xCC PUSH1 0x4 DUP1 CALLDATASIZE SUB DUP2 ADD SWAP1 PUSH2 0xC7 SWAP2 SWAP1 PUSH2 0x76A JUMP JUMPDEST PUSH2 0x294 JUMP JUMPDEST STOP JUMPDEST PUSH2 0xE8 PUSH1 0x4 DUP1 CALLDATASIZE SUB DUP2 ADD SWAP1 PUSH2 0xE3 SWAP2 SWAP1 PUSH2 0x611 JUMP JUMPDEST PUSH2 0x4B5 JUMP JUMPDEST PUSH1 0x40 MLOAD PUSH2 0xF6 SWAP3 SWAP2 SWAP1 PUSH2 0x7B5 JUMP JUMPDEST PUSH1 0x40 MLOAD DUP1 SWAP2 SUB SWAP1 RETURN JUMPDEST PUSH2 0x107 PUSH2 0x575 JUMP JUMPDEST PUSH1 0x40 MLOAD PUSH2 0x114 SWAP2 SWAP1 PUSH2 0x7F2 JUMP JUMPDEST PUSH1 0x40 MLOAD DUP1 SWAP2 SUB SWAP1 RETURN JUMPDEST PUSH2 0x137 PUSH1 0x4 DUP1 CALLDATASIZE SUB DUP2 ADD SWAP1 PUSH2 0x132 SWAP2 SWAP1 PUSH2 0x80B JUMP JUMPDEST PUSH2 0x580 JUMP JUMPDEST STOP JUMPDEST PUSH0 DUP1 DUP3 DUP2 SLOAD DUP2 LT PUSH2 0x14D JUMPI PUSH2 0x14C PUSH2 0x868 JUMP JUMPDEST JUMPDEST SWAP1 PUSH0 MSTORE PUSH1 0x20 PUSH0 KECCAK256 SWAP1 PUSH1 0x2 MUL ADD SWAP1 POP DUP1 PUSH1 0x1 ADD PUSH0 SWAP1 SLOAD SWAP1 PUSH2 0x100 EXP SWAP1 DIV PUSH1 0xFF AND ISZERO DUP2 PUSH1 0x1 ADD PUSH0 PUSH2 0x100 EXP DUP2 SLOAD DUP2 PUSH1 0xFF MUL NOT AND SWAP1 DUP4 ISZERO ISZERO MUL OR SWAP1 SSTORE POP POP POP JUMP JUMPDEST PUSH1 0x60 PUSH0 PUSH1 0x60 PUSH0 DUP1 DUP6 DUP2 SLOAD DUP2 LT PUSH2 0x1A4 JUMPI PUSH2 0x1A3 PUSH2 0x868 JUMP JUMPDEST JUMPDEST SWAP1 PUSH0 MSTORE PUSH1 0x20 PUSH0 KECCAK256 SWAP1 PUSH1 0x2 MUL ADD SWAP1 POP DUP1 PUSH0 ADD DUP2 PUSH1 0x1 ADD PUSH0 SWAP1 SLOAD SWAP1 PUSH2 0x100 EXP SWAP1 DIV PUSH1 0xFF AND DUP2 DUP1 SLOAD PUSH2 0x1D2 SWAP1 PUSH2 0x8C2 JUMP JUMPDEST DUP1 PUSH1 0x1F ADD PUSH1 0x20 DUP1 SWAP2 DIV MUL PUSH1 0x20 ADD PUSH1 0x40 MLOAD SWAP1 DUP2 ADD PUSH1 0x40 MSTORE DUP1 SWAP3 SWAP2 SWAP1 DUP2 DUP2 MSTORE PUSH1 0x20 ADD DUP3 DUP1 SLOAD PUSH2 0x1FE SWAP1 PUSH2 0x8C2 JUMP JUMPDEST DUP1 ISZERO PUSH2 0x249 JUMPI DUP1 PUSH1 0x1F LT PUSH2 0x220 JUMPI PUSH2 0x100 DUP1 DUP4 SLOAD DIV MUL DUP4 MSTORE SWAP2 PUSH1 0x20 ADD SWAP2 PUSH2 0x249 JUMP JUMPDEST DUP3 ADD SWAP2 SWAP1 PUSH0 MSTORE PUSH1 0x20 PUSH0 KECCAK256 SWAP1 JUMPDEST DUP2 SLOAD DUP2 MSTORE SWAP1 PUSH1 0x1 ADD SWAP1 PUSH1 0x20 ADD DUP1 DUP4 GT PUSH2 0x22C JUMPI DUP3 SWAP1 SUB PUSH1 0x1F AND DUP3 ADD SWAP2 JUMPDEST POP POP POP POP POP SWAP2 POP PUSH1 0x40 MLOAD DUP1 PUSH1 0x40 ADD PUSH1 0x40 MSTORE DUP1 PUSH1 0xA DUP2 MSTORE PUSH1 0x20 ADD PUSH32 0x6578747261207465787400000000000000000000000000000000000000000000 DUP2 MSTORE POP SWAP4 POP SWAP4 POP SWAP4 POP POP SWAP2 SWAP4 SWAP1 SWAP3 POP JUMP JUMPDEST PUSH0 PUSH1 0x40 MLOAD DUP1 PUSH1 0x40 ADD PUSH1 0x40 MSTORE DUP1 DUP5 DUP5 DUP1 DUP1 PUSH1 0x1F ADD PUSH1 0x20 DUP1 SWAP2 DIV MUL PUSH1 0x20 ADD PUSH1 0x40 MLOAD SWAP1 DUP2 ADD PUSH1 0x40 MSTORE DUP1 SWAP4 SWAP3 SWAP2 SWAP1 DUP2 DUP2 MSTORE PUSH1 0x20 ADD DUP4 DUP4 DUP1 DUP3 DUP5 CALLDATACOPY PUSH0 DUP2 DUP5 ADD MSTORE PUSH1 0x1F NOT PUSH1 0x1F DUP3 ADD AND SWAP1 POP DUP1 DUP4 ADD SWAP3 POP POP POP POP POP POP POP DUP2 MSTORE PUSH1 0x20 ADD PUSH0 ISZERO ISZERO DUP2 MSTORE POP SWAP1 DUP1 PUSH1 0x1 DUP2 SLOAD ADD DUP1 DUP3 SSTORE DUP1 SWAP2 POP POP PUSH1 0x1 SWAP1 SUB SWAP1 PUSH0 MSTORE PUSH1 0x20 PUSH0 KECCAK256 SWAP1 PUSH1 0x2 MUL ADD PUSH0 SWAP1 SWAP2 SWAP1 SWAP2 SWAP1 SWAP2 POP PUSH0 DUP3 ADD MLOAD DUP2 PUSH0 ADD SWAP1 DUP2 PUSH2 0x328 SWAP2 SWAP1 PUSH2 0xABC JUMP JUMPDEST POP PUSH1 0x20 DUP3 ADD MLOAD DUP2 PUSH1 0x1 ADD PUSH0 PUSH2 0x100 EXP DUP2 SLOAD DUP2 PUSH1 0xFF MUL NOT AND SWAP1 DUP4 ISZERO ISZERO MUL OR SWAP1 SSTORE POP POP POP PUSH0 PUSH1 0x40 MLOAD DUP1 PUSH1 0x40 ADD PUSH1 0x40 MSTORE DUP1 DUP5 DUP5 DUP1 DUP1 PUSH1 0x1F ADD PUSH1 0x20 DUP1 SWAP2 DIV MUL PUSH1 0x20 ADD PUSH1 0x40 MLOAD SWAP1 DUP2 ADD PUSH1 0x40 MSTORE DUP1 SWAP4 SWAP3 SWAP2 SWAP1 DUP2 DUP2 MSTORE PUSH1 0x20 ADD DUP4 DUP4 DUP1 DUP3 DUP5 CALLDATACOPY PUSH0 DUP2 DUP5 ADD MSTORE PUSH1 0x1F NOT PUSH1 0x1F DUP3 ADD AND SWAP1 POP DUP1 DUP4 ADD SWAP3 POP POP POP POP POP POP POP DUP2 MSTORE PUSH1 0x20 ADD PUSH0 ISZERO ISZERO DUP2 MSTORE POP SWAP1 DUP1 PUSH1 0x1 DUP2 SLOAD ADD DUP1 DUP3 SSTORE DUP1 SWAP2 POP POP PUSH1 0x1 SWAP1 SUB SWAP1 PUSH0 MSTORE PUSH1 0x20 PUSH0 KECCAK256 SWAP1 PUSH1 0x2 MUL ADD PUSH0 SWAP1 SWAP2 SWAP1 SWAP2 SWAP1 SWAP2 POP PUSH0 DUP3 ADD MLOAD DUP2 PUSH0 ADD SWAP1 DUP2 PUSH2 0x3DE SWAP2 SWAP1 PUSH2 0xABC JUMP JUMPDEST POP PUSH1 0x20 DUP3 ADD MLOAD DUP2 PUSH1 0x1 ADD PUSH0 PUSH2 0x100 EXP DUP2 SLOAD DUP2 PUSH1 0xFF MUL NOT AND SWAP1 DUP4 ISZERO ISZERO MUL OR SWAP1 SSTORE POP POP POP PUSH2 0x408 PUSH2 0x5BB JUMP JUMPDEST DUP3 DUP3 DUP1 DUP1 PUSH1 0x1F ADD PUSH1 0x20 DUP1 SWAP2 DIV MUL PUSH1 0x20 ADD PUSH1 0x40 MLOAD SWAP1 DUP2 ADD PUSH1 0x40 MSTORE DUP1 SWAP4 SWAP3 SWAP2 SWAP1 DUP2 DUP2 MSTORE PUSH1 0x20 ADD DUP4 DUP4 DUP1 DUP3 DUP5 CALLDATACOPY PUSH0 DUP2 DUP5 ADD MSTORE PUSH1 0x1F NOT PUSH1 0x1F DUP3 ADD AND SWAP1 POP DUP1 DUP4 ADD SWAP3 POP POP POP POP POP POP POP DUP2 PUSH0 ADD DUP2 SWAP1 MSTORE POP PUSH0 DUP2 SWAP1 DUP1 PUSH1 0x1 DUP2 SLOAD ADD DUP1 DUP3 SSTORE DUP1 SWAP2 POP POP PUSH1 0x1 SWAP1 SUB SWAP1 PUSH0 MSTORE PUSH1 0x20 PUSH0 KECCAK256 SWAP1 PUSH1 0x2 MUL ADD PUSH0 SWAP1 SWAP2 SWAP1 SWAP2 SWAP1 SWAP2 POP PUSH0 DUP3 ADD MLOAD DUP2 PUSH0 ADD SWAP1 DUP2 PUSH2 0x48E SWAP2 SWAP1 PUSH2 0xABC JUMP JUMPDEST POP PUSH1 0x20 DUP3 ADD MLOAD DUP2 PUSH1 0x1 ADD PUSH0 PUSH2 0x100 EXP DUP2 SLOAD DUP2 PUSH1 0xFF MUL NOT AND SWAP1 DUP4 ISZERO ISZERO MUL OR SWAP1 SSTORE POP POP POP POP POP POP JUMP JUMPDEST PUSH0 DUP2 DUP2 SLOAD DUP2 LT PUSH2 0x4C3 JUMPI PUSH0 DUP1 REVERT JUMPDEST SWAP1 PUSH0 MSTORE PUSH1 0x20 PUSH0 KECCAK256 SWAP1 PUSH1 0x2 MUL ADD PUSH0 SWAP2 POP SWAP1 POP DUP1 PUSH0 ADD DUP1 SLOAD PUSH2 0x4E2 SWAP1 PUSH2 0x8C2 JUMP JUMPDEST DUP1 PUSH1 0x1F ADD PUSH1 0x20 DUP1 SWAP2 DIV MUL PUSH1 0x20 ADD PUSH1 0x40 MLOAD SWAP1 DUP2 ADD PUSH1 0x40 MSTORE DUP1 SWAP3 SWAP2 SWAP1 DUP2 DUP2 MSTORE PUSH1 0x20 ADD DUP3 DUP1 SLOAD PUSH2 0x50E SWAP1 PUSH2 0x8C2 JUMP JUMPDEST DUP1 ISZERO PUSH2 0x559 JUMPI DUP1 PUSH1 0x1F LT PUSH2 0x530 JUMPI PUSH2 0x100 DUP1 DUP4 SLOAD DIV MUL DUP4 MSTORE SWAP2 PUSH1 0x20 ADD SWAP2 PUSH2 0x559 JUMP JUMPDEST DUP3 ADD SWAP2 SWAP1 PUSH0 MSTORE PUSH1 0x20 PUSH0 KECCAK256 SWAP1 JUMPDEST DUP2 SLOAD DUP2 MSTORE SWAP1 PUSH1 0x1 ADD SWAP1 PUSH1 0x20 ADD DUP1 DUP4 GT PUSH2 0x53C JUMPI DUP3 SWAP1 SUB PUSH1 0x1F AND DUP3 ADD SWAP2 JUMPDEST POP POP POP POP POP SWAP1 DUP1 PUSH1 0x1 ADD PUSH0 SWAP1 SLOAD SWAP1 PUSH2 0x100 EXP SWAP1 DIV PUSH1 0xFF AND SWAP1 POP DUP3 JUMP JUMPDEST PUSH0 DUP1 DUP1 SLOAD SWAP1 POP SWAP1 POP SWAP1 JUMP JUMPDEST PUSH0 DUP1 DUP5 DUP2 SLOAD DUP2 LT PUSH2 0x594 JUMPI PUSH2 0x593 PUSH2 0x868 JUMP JUMPDEST JUMPDEST SWAP1 PUSH0 MSTORE PUSH1 0x20 PUSH0 KECCAK256 SWAP1 PUSH1 0x2 MUL ADD SWAP1 POP DUP3 DUP3 DUP3 PUSH0 ADD SWAP2 DUP3 PUSH2 0x5B4 SWAP3 SWAP2 SWAP1 PUSH2 0xB95 JUMP JUMPDEST POP POP POP POP POP JUMP JUMPDEST PUSH1 0x40 MLOAD DUP1 PUSH1 0x40 ADD PUSH1 0x40 MSTORE DUP1 PUSH1 0x60 DUP2 MSTORE PUSH1 0x20 ADD PUSH0 ISZERO ISZERO DUP2 MSTORE POP SWAP1 JUMP JUMPDEST PUSH0 DUP1 REVERT JUMPDEST PUSH0 DUP1 REVERT JUMPDEST PUSH0 DUP2 SWAP1 POP SWAP2 SWAP1 POP JUMP JUMPDEST PUSH2 0x5F0 DUP2 PUSH2 0x5DE JUMP JUMPDEST DUP2 EQ PUSH2 0x5FA JUMPI PUSH0 DUP1 REVERT JUMPDEST POP JUMP JUMPDEST PUSH0 DUP2 CALLDATALOAD SWAP1 POP PUSH2 0x60B DUP2 PUSH2 0x5E7 JUMP JUMPDEST SWAP3 SWAP2 POP POP JUMP JUMPDEST PUSH0 PUSH1 0x20 DUP3 DUP5 SUB SLT ISZERO PUSH2 0x626 JUMPI PUSH2 0x625 PUSH2 0x5D6 JUMP JUMPDEST JUMPDEST PUSH0 PUSH2 0x633 DUP5 DUP3 DUP6 ADD PUSH2 0x5FD JUMP JUMPDEST SWAP2 POP POP SWAP3 SWAP2 POP POP JUMP JUMPDEST PUSH0 DUP2 MLOAD SWAP1 POP SWAP2 SWAP1 POP JUMP JUMPDEST PUSH0 DUP3 DUP3 MSTORE PUSH1 0x20 DUP3 ADD SWAP1 POP SWAP3 SWAP2 POP POP JUMP JUMPDEST DUP3 DUP2 DUP4 MCOPY PUSH0 DUP4 DUP4 ADD MSTORE POP POP POP JUMP JUMPDEST PUSH0 PUSH1 0x1F NOT PUSH1 0x1F DUP4 ADD AND SWAP1 POP SWAP2 SWAP1 POP JUMP JUMPDEST PUSH0 PUSH2 0x67E DUP3 PUSH2 0x63C JUMP JUMPDEST PUSH2 0x688 DUP2 DUP6 PUSH2 0x646 JUMP JUMPDEST SWAP4 POP PUSH2 0x698 DUP2 DUP6 PUSH1 0x20 DUP7 ADD PUSH2 0x656 JUMP JUMPDEST PUSH2 0x6A1 DUP2 PUSH2 0x664 JUMP JUMPDEST DUP5 ADD SWAP2 POP POP SWAP3 SWAP2 POP POP JUMP JUMPDEST PUSH0 DUP2 ISZERO ISZERO SWAP1 POP SWAP2 SWAP1 POP JUMP JUMPDEST PUSH2 0x6C0 DUP2 PUSH2 0x6AC JUMP JUMPDEST DUP3 MSTORE POP POP JUMP JUMPDEST PUSH0 PUSH1 0x60 DUP3 ADD SWAP1 POP DUP2 DUP2 SUB PUSH0 DUP4 ADD MSTORE PUSH2 0x6DE DUP2 DUP7 PUSH2 0x674 JUMP JUMPDEST SWAP1 POP PUSH2 0x6ED PUSH1 0x20 DUP4 ADD DUP6 PUSH2 0x6B7 JUMP JUMPDEST DUP2 DUP2 SUB PUSH1 0x40 DUP4 ADD MSTORE PUSH2 0x6FF DUP2 DUP5 PUSH2 0x674 JUMP JUMPDEST SWAP1 POP SWAP5 SWAP4 POP POP POP POP JUMP JUMPDEST PUSH0 DUP1 REVERT JUMPDEST PUSH0 DUP1 REVERT JUMPDEST PUSH0 DUP1 REVERT JUMPDEST PUSH0 DUP1 DUP4 PUSH1 0x1F DUP5 ADD SLT PUSH2 0x72A JUMPI PUSH2 0x729 PUSH2 0x709 JUMP JUMPDEST JUMPDEST DUP3 CALLDATALOAD SWAP1 POP PUSH8 0xFFFFFFFFFFFFFFFF DUP2 GT ISZERO PUSH2 0x747 JUMPI PUSH2 0x746 PUSH2 0x70D JUMP JUMPDEST JUMPDEST PUSH1 0x20 DUP4 ADD SWAP2 POP DUP4 PUSH1 0x1 DUP3 MUL DUP4 ADD GT ISZERO PUSH2 0x763 JUMPI PUSH2 0x762 PUSH2 0x711 JUMP JUMPDEST JUMPDEST SWAP3 POP SWAP3 SWAP1 POP JUMP JUMPDEST PUSH0 DUP1 PUSH1 0x20 DUP4 DUP6 SUB SLT ISZERO PUSH2 0x780 JUMPI PUSH2 0x77F PUSH2 0x5D6 JUMP JUMPDEST JUMPDEST PUSH0 DUP4 ADD CALLDATALOAD PUSH8 0xFFFFFFFFFFFFFFFF DUP2 GT ISZERO PUSH2 0x79D JUMPI PUSH2 0x79C PUSH2 0x5DA JUMP JUMPDEST JUMPDEST PUSH2 0x7A9 DUP6 DUP3 DUP7 ADD PUSH2 0x715 JUMP JUMPDEST SWAP3 POP SWAP3 POP POP SWAP3 POP SWAP3 SWAP1 POP JUMP JUMPDEST PUSH0 PUSH1 0x40 DUP3 ADD SWAP1 POP DUP2 DUP2 SUB PUSH0 DUP4 ADD MSTORE PUSH2 0x7CD DUP2 DUP6 PUSH2 0x674 JUMP JUMPDEST SWAP1 POP PUSH2 0x7DC PUSH1 0x20 DUP4 ADD DUP5 PUSH2 0x6B7 JUMP JUMPDEST SWAP4 SWAP3 POP POP POP JUMP JUMPDEST PUSH2 0x7EC DUP2 PUSH2 0x5DE JUMP JUMPDEST DUP3 MSTORE POP POP JUMP JUMPDEST PUSH0 PUSH1 0x20 DUP3 ADD SWAP1 POP PUSH2 0x805 PUSH0 DUP4 ADD DUP5 PUSH2 0x7E3 JUMP JUMPDEST SWAP3 SWAP2 POP POP JUMP JUMPDEST PUSH0 DUP1 PUSH0 PUSH1 0x40 DUP5 DUP7 SUB SLT ISZERO PUSH2 0x822 JUMPI PUSH2 0x821 PUSH2 0x5D6 JUMP JUMPDEST JUMPDEST PUSH0 PUSH2 0x82F DUP7 DUP3 DUP8 ADD PUSH2 0x5FD JUMP JUMPDEST SWAP4 POP POP PUSH1 0x20 DUP5 ADD CALLDATALOAD PUSH8 0xFFFFFFFFFFFFFFFF DUP2 GT ISZERO PUSH2 0x850 JUMPI PUSH2 0x84F PUSH2 0x5DA JUMP JUMPDEST JUMPDEST PUSH2 0x85C DUP7 DUP3 DUP8 ADD PUSH2 0x715 JUMP JUMPDEST SWAP3 POP SWAP3 POP POP SWAP3 POP SWAP3 POP SWAP3 JUMP JUMPDEST PUSH32 0x4E487B7100000000000000000000000000000000000000000000000000000000 PUSH0 MSTORE PUSH1 0x32 PUSH1 0x4 MSTORE PUSH1 0x24 PUSH0 REVERT JUMPDEST PUSH32 0x4E487B7100000000000000000000000000000000000000000000000000000000 PUSH0 MSTORE PUSH1 0x22 PUSH1 0x4 MSTORE PUSH1 0x24 PUSH0 REVERT JUMPDEST PUSH0 PUSH1 0x2 DUP3 DIV SWAP1 POP PUSH1 0x1 DUP3 AND DUP1 PUSH2 0x8D9 JUMPI PUSH1 0x7F DUP3 AND SWAP2 POP JUMPDEST PUSH1 0x20 DUP3 LT DUP2 SUB PUSH2 0x8EC JUMPI PUSH2 0x8EB PUSH2 0x895 JUMP JUMPDEST JUMPDEST POP SWAP2 SWAP1 POP JUMP JUMPDEST PUSH32 0x4E487B7100000000000000000000000000000000000000000000000000000000 PUSH0 MSTORE PUSH1 0x41 PUSH1 0x4 MSTORE PUSH1 0x24 PUSH0 REVERT JUMPDEST PUSH0 DUP2 SWAP1 POP DUP2 PUSH0 MSTORE PUSH1 0x20 PUSH0 KECCAK256 SWAP1 POP SWAP2 SWAP1 POP JUMP JUMPDEST PUSH0 PUSH1 0x20 PUSH1 0x1F DUP4 ADD DIV SWAP1 POP SWAP2 SWAP1 POP JUMP JUMPDEST PUSH0 DUP3 DUP3 SHL SWAP1 POP SWAP3 SWAP2 POP POP JUMP JUMPDEST PUSH0 PUSH1 0x8 DUP4 MUL PUSH2 0x97B PUSH32 0xFFFFFFFFFFFFFFFFFFFFFFFFFFFFFFFFFFFFFFFFFFFFFFFFFFFFFFFFFFFFFFFF DUP3 PUSH2 0x940 JUMP JUMPDEST PUSH2 0x985 DUP7 DUP4 PUSH2 0x940 JUMP JUMPDEST SWAP6 POP DUP1 NOT DUP5 AND SWAP4 POP DUP1 DUP7 AND DUP5 OR SWAP3 POP POP POP SWAP4 SWAP3 POP POP POP JUMP JUMPDEST PUSH0 DUP2 SWAP1 POP SWAP2 SWAP1 POP JUMP JUMPDEST PUSH0 PUSH2 0x9C0 PUSH2 0x9BB PUSH2 0x9B6 DUP5 PUSH2 0x5DE JUMP JUMPDEST PUSH2 0x99D JUMP JUMPDEST PUSH2 0x5DE JUMP JUMPDEST SWAP1 POP SWAP2 SWAP1 POP JUMP JUMPDEST PUSH0 DUP2 SWAP1 POP SWAP2 SWAP1 POP JUMP JUMPDEST PUSH2 0x9D9 DUP4 PUSH2 0x9A6 JUMP JUMPDEST PUSH2 0x9ED PUSH2 0x9E5 DUP3 PUSH2 0x9C7 JUMP JUMPDEST DUP5 DUP5 SLOAD PUSH2 0x94C JUMP JUMPDEST DUP3 SSTORE POP POP POP POP JUMP JUMPDEST PUSH0 SWAP1 JUMP JUMPDEST PUSH2 0xA01 PUSH2 0x9F5 JUMP JUMPDEST PUSH2 0xA0C DUP2 DUP5 DUP5 PUSH2 0x9D0 JUMP JUMPDEST POP POP POP JUMP JUMPDEST JUMPDEST DUP2 DUP2 LT ISZERO PUSH2 0xA2F JUMPI PUSH2 0xA24 PUSH0 DUP3 PUSH2 0x9F9 JUMP JUMPDEST PUSH1 0x1 DUP2 ADD SWAP1 POP PUSH2 0xA12 JUMP JUMPDEST POP POP JUMP JUMPDEST PUSH1 0x1F DUP3 GT ISZERO PUSH2 0xA74 JUMPI PUSH2 0xA45 DUP2 PUSH2 0x91F JUMP JUMPDEST PUSH2 0xA4E DUP5 PUSH2 0x931 JUMP JUMPDEST DUP2 ADD PUSH1 0x20 DUP6 LT ISZERO PUSH2 0xA5D JUMPI DUP2 SWAP1 POP JUMPDEST PUSH2 0xA71 PUSH2 0xA69 DUP6 PUSH2 0x931 JUMP JUMPDEST DUP4 ADD DUP3 PUSH2 0xA11 JUMP JUMPDEST POP POP JUMPDEST POP POP POP JUMP JUMPDEST PUSH0 DUP3 DUP3 SHR SWAP1 POP SWAP3 SWAP2 POP POP JUMP JUMPDEST PUSH0 PUSH2 0xA94 PUSH0 NOT DUP5 PUSH1 0x8 MUL PUSH2 0xA79 JUMP JUMPDEST NOT DUP1 DUP4 AND SWAP2 POP POP SWAP3 SWAP2 POP POP JUMP JUMPDEST PUSH0 PUSH2 0xAAC DUP4 DUP4 PUSH2 0xA85 JUMP JUMPDEST SWAP2 POP DUP3 PUSH1 0x2 MUL DUP3 OR SWAP1 POP SWAP3 SWAP2 POP POP JUMP JUMPDEST PUSH2 0xAC5 DUP3 PUSH2 0x63C JUMP JUMPDEST PUSH8 0xFFFFFFFFFFFFFFFF DUP2 GT ISZERO PUSH2 0xADE JUMPI PUSH2 0xADD PUSH2 0x8F2 JUMP JUMPDEST JUMPDEST PUSH2 0xAE8 DUP3 SLOAD PUSH2 0x8C2 JUMP JUMPDEST PUSH2 0xAF3 DUP3 DUP3 DUP6 PUSH2 0xA33 JUMP JUMPDEST PUSH0 PUSH1 0x20 SWAP1 POP PUSH1 0x1F DUP4 GT PUSH1 0x1 DUP2 EQ PUSH2 0xB24 JUMPI PUSH0 DUP5 ISZERO PUSH2 0xB12 JUMPI DUP3 DUP8 ADD MLOAD SWAP1 POP JUMPDEST PUSH2 0xB1C DUP6 DUP3 PUSH2 0xAA1 JUMP JUMPDEST DUP7 SSTORE POP PUSH2 0xB83 JUMP JUMPDEST PUSH1 0x1F NOT DUP5 AND PUSH2 0xB32 DUP7 PUSH2 0x91F JUMP JUMPDEST PUSH0 JUMPDEST DUP3 DUP2 LT ISZERO PUSH2 0xB59 JUMPI DUP5 DUP10 ADD MLOAD DUP3 SSTORE PUSH1 0x1 DUP3 ADD SWAP2 POP PUSH1 0x20 DUP6 ADD SWAP5 POP PUSH1 0x20 DUP2 ADD SWAP1 POP PUSH2 0xB34 JUMP JUMPDEST DUP7 DUP4 LT ISZERO PUSH2 0xB76 JUMPI DUP5 DUP10 ADD MLOAD PUSH2 0xB72 PUSH1 0x1F DUP10 AND DUP3 PUSH2 0xA85 JUMP JUMPDEST DUP4 SSTORE POP JUMPDEST PUSH1 0x1 PUSH1 0x2 DUP9 MUL ADD DUP9 SSTORE POP POP POP JUMPDEST POP POP POP POP POP POP JUMP JUMPDEST PUSH0 DUP3 SWAP1 POP SWAP3 SWAP2 POP POP JUMP JUMPDEST PUSH2 0xB9F DUP4 DUP4 PUSH2 0xB8B JUMP JUMPDEST PUSH8 0xFFFFFFFFFFFFFFFF DUP2 GT ISZERO PUSH2 0xBB8 JUMPI PUSH2 0xBB7 PUSH2 0x8F2 JUMP JUMPDEST JUMPDEST PUSH2 0xBC2 DUP3 SLOAD PUSH2 0x8C2 JUMP JUMPDEST PUSH2 0xBCD DUP3 DUP3 DUP6 PUSH2 0xA33 JUMP JUMPDEST PUSH0 PUSH1 0x1F DUP4 GT PUSH1 0x1 DUP2 EQ PUSH2 0xBFA JUMPI PUSH0 DUP5 ISZERO PUSH2 0xBE8 JUMPI DUP3 DUP8 ADD CALLDATALOAD SWAP1 POP JUMPDEST PUSH2 0xBF2 DUP6 DUP3 PUSH2 0xAA1 JUMP JUMPDEST DUP7 SSTORE POP PUSH2 0xC59 JUMP JUMPDEST PUSH1 0x1F NOT DUP5 AND PUSH2 0xC08 DUP7 PUSH2 0x91F JUMP JUMPDEST PUSH0 JUMPDEST DUP3 DUP2 LT ISZERO PUSH2 0xC2F JUMPI DUP5 DUP10 ADD CALLDATALOAD DUP3 SSTORE PUSH1 0x1 DUP3 ADD SWAP2 POP PUSH1 0x20 DUP6 ADD SWAP5 POP PUSH1 0x20 DUP2 ADD SWAP1 POP PUSH2 0xC0A JUMP JUMPDEST DUP7 DUP4 LT ISZERO PUSH2 0xC4C JUMPI DUP5 DUP10 ADD CALLDATALOAD PUSH2 0xC48 PUSH1 0x1F DUP10 AND DUP3 PUSH2 0xA85 JUMP JUMPDEST DUP4 SSTORE POP JUMPDEST PUSH1 0x1 PUSH1 0x2 DUP9 MUL ADD DUP9 SSTORE POP POP POP JUMPDEST POP POP POP POP POP POP POP JUMP INVALID LOG2 PUSH5 0x6970667358 0x22 SLT KECCAK256 SWAP1 0xCD DUP4 BLOBHASH PUSH3 0xB435E0 PUSH11 0xCE1CE2C0E55D0D34898EA PUSH25 0x83028187546E59919C6BFA64736F6C634300081A0033000000 "
				},
				"gasEstimates": {
					"creation": {
						"codeDepositCost": "644800",
						"executionCost": "674",
						"totalCost": "645474"
					},
					"external": {
						"create(string)": "infinite",
						"get(uint256)": "infinite",
						"getLength()": "2506",
						"todos(uint256)": "infinite",
						"toggleCompleted(uint256)": "28996",
						"updateText(uint256,string)": "infinite"
					}
				},
				"methodIdentifiers": {
					"create(string)": "b6a46b3b",
					"get(uint256)": "9507d39a",
					"getLength()": "be1c766b",
					"todos(uint256)": "bc8bc2b4",
					"toggleCompleted(uint256)": "455f5024",
					"updateText(uint256,string)": "cd111614"
				}
			},
			"storageLayout": {
				"storage": [
					{
						"astId": 13,
						"contract": "contracts/Structs.sol:Todos",
						"label": "todos",
						"offset": 0,
						"slot": "0",
						"type": "t_array(t_struct(Todo)6_storage)dyn_storage"
					}
				],
				"types": {
					"t_array(t_struct(Todo)6_storage)dyn_storage": {
						"base": "t_struct(Todo)6_storage",
						"encoding": "dynamic_array",
						"label": "struct Todo[]",
						"numberOfBytes": "32"
					},
					"t_bool": {
						"encoding": "inplace",
						"label": "bool",
						"numberOfBytes": "1"
					},
					"t_string_storage": {
						"encoding": "bytes",
						"label": "string",
						"numberOfBytes": "32"
					},
					"t_struct(Todo)6_storage": {
						"encoding": "inplace",
						"label": "struct Todo",
						"members": [
							{
								"astId": 3,
								"contract": "contracts/Structs.sol:Todos",
								"label": "text",
								"offset": 0,
								"slot": "0",
								"type": "t_string_storage"
							},
							{
								"astId": 5,
								"contract": "contracts/Structs.sol:Todos",
								"label": "completed",
								"offset": 0,
								"slot": "1",
								"type": "t_bool"
							}
						],
						"numberOfBytes": "64"
					}
				}
			},
			"userdoc": {
				"kind": "user",
				"methods": {},
				"version": 1
			}
		}
	}
}